:020000040800F2
:10000000F8F300208502000861780008215F0008ED
:100010005D780008DB15000839AA00080000000020
:10002000000000000000000000000000BD8000088B
:100030003F1D0008000000004B7B0008BF80000847
:10004000EB020008EB020008EB020008EB020008DC
:10005000EB020008EB020008EB020008EB020008CC
:10006000EB020008EB020008EB020008EB020008BC
:10007000EB020008EB020008411C0008511C0008BC
:10008000EB020008EB020008EB020008EB0200089C
:10009000E1150008EB020008EB020008411D000812
:1000A000EB020008EB020008EB020008EB0200087C
:1000B000B9810008C9810008EB020008EB020008C2
:1000C000EB020008395F0008295F0008EB02000816
:1000D000857F0008BD880008CD880008DD880008FD
:1000E000EB020008EB020008EB020008EB0200083C
:1000F000EB020008EB020008EB020008EB0200082C
:10010000EB020008EB020008D9810008EB020008AE
:1001100049830008EB020008E9810008EB020008AF
:10012000EB020008EB020008EB020008EB020008FB
:10013000EB0200080000000000000000EB020008D5
:10014000F9150008EB020008EB02000879780008B6
:10015000EB020008EB020008EB020008ED88000843
:10016000595F0008495F0008EB020008EB02000835
:10017000EB020008EB020008000000000000000095
:10018000EB020008EB02000830B501464FF0FF30EB
:100190000C68B4F1804F23D24C684C4004F4002426
:1001A000F4B9324C2368246844F480542F4D2C60F9
:1001B00001242F4DAC6000220CE010C92C4D2C60A6
:1001C0002C4624682CB9541C0D68A54201D100208E
:1001D00003E0521C274CA242EFD300BF234C236004
:1001E00030BD10B5002324490CE00A68501C40B112
:1001F000002404E09818C3B25208601CC4B2202C3A
:10020000F8DB091DB1F1016FEFD303F0010010BD60
:100210007846082101EA104008B10120704700200B
:10022000FCE710B5FFF7F4FF28B107F0B7FF13485C
:100230001349086010BD1148FFF7A6FF88B94FF0B9
:100240000060FFF7A1FF48B9FFF7CBFF48B10748AF
:100250004430006800F0C04018B900E000BF00F072
:1002600015F807F09BFF00BFE4E7000030380240BC
:1002700000300240FFFF010080FF0F080000080867
:1002800008ED00E004488047044800470449086836
:100290008546486801B400BD23020008A502000895
:1002A00000000808DFF810D000F0A8FF0048004761
:1002B00045FE0008AFF30080F8F3002040BA704715
:1002C00040BA704740BA704740BA704740BA70476A
:1002D0000648804706480047FEE7FEE7FEE7FEE7E0
:1002E000FEE7FEE7FEE7FEE7FEE7FEE79D8100088A
:1002F000A50200082DE9F04707464FF000083C46EC
:10030000042C05D24FF0006040EA8436C5130FE09C
:10031000042C02D1FB4E25030AE00C2C06D2201F30
:100320004FF0006141EA40460D1301E04FF0FF3805
:10033000B8F1000F3CD105E03068401C00B103E08B
:10034000361D6D1E002DF7D100BF8DB372B6EE487D
:10035000EE490860EE480860081FD0F800900520BC
:10036000091F0860BFF3408FBFF3608FE748083074
:10037000006840F0F000E54908310860E54820F0E9
:1003800001014FF4B872E44800F0FDFAA0B2E2496E
:10039000491C88478046DD480C30006840F000402A
:1003A000DA490C310860D948001FC0F8009062B6E5
:1003B0004046BDE8F08770B5034672B6D24DD34EC5
:1003C0003560D34D3560351F2C680525361F3560E7
:1003D000BFF3408FBFF3608FCC4D08352D6845F0DB
:1003E000F005CA4E083635600020D51C25F0030202
:1003F00035462D6845F0F00535600025361D356021
:1004000030E04AF6AA25C54E35601D680E68B54233
:1004100025D072B6BD4D0C352D6840F2012635430E
:10042000BA4E0C3635600D681D6000BFB74D0835FB
:100430002D6805F48035002DF8D1B44E0C363560AA
:10044000351F2D6805F0F00545B1351F2D6845F0C5
:10045000F005361F35604FF0FF3005E062B61B1D1A
:10046000091D121F002ACCD100BFA84D0C352D68E4
:1004700045F00045A54E0C363560A44D2D1F2C606F
:1004800062B670BD70B5044672B69F489F49086059
:100490009F480860081F05680520091F0860BFF312
:1004A000408FBFF3608F99480830006840F0F0003B
:1004B0009649083108609A4820F001014FF4B8725B
:1004C000954800F060FA20469349491C88478F48B8
:1004D0000C30006840F000408C490C3108608B48BB
:1004E000001F056062B670BD2DE9FF4F87B09B46C7
:1004F000BBF1000F39D10898C0F34000A0B30898B1
:10050000C0F3D400B0F5002F11D1864890F9000057
:1005100085490870FFF77CFE83494870FFF761FE4C
:100520008149887081480068000EC870E2E108982F
:10053000C0F3D400B0F5002FF8DAFFF769FE48B930
:100540000898C0F3D4007A4A81187748099A00F0D5
:100550001AFACFE10898C0F3D40000F100617248A4
:10056000099A00F010FAC5E1FFE7BBF1010FDDD1F8
:100570000898C0F340000028D8D10898C0F3D400F0
:10058000B0F5002F74D100206649087066480068F5
:10059000050E05F0FE00801E0D286AD2DFE800F08F
:1005A00007693A69D469EB69FA693B69F90068B28D
:1005B0005C4908705C48006820F07F4048BB5A489E
:1005C000406830BB0027FFF723FE68B9082608E023
:1005D0000FB1384602E03046FFF78CFE0746701C2C
:1005E00086B20B2EF4DD0CE0002608E00FB1384691
:1005F00002E03046FFF77EFE0746701C86B2072EEB
:10060000F4DD37B14748007840F0800040B24549FA
:10061000087045E100BF68B2424908700C2D01D155
:10062000012000E000200590059850B1FFF7F0FD93
:1006300038B13C48007840F0C00040B239490870F9
:100640002EE139480068C0F3120003903648406834
:10065000029036484438006840F4805033494439A9
:100660000860059850B905F0010018B1304803E062
:1006700017E114E14FF00060044600E02C4C0398B1
:100680004FEA900901202B4988604FF0000806E0EE
:100690002068401C27490860241D08F10108C8454E
:1006A000F6D32448D0F800A020484438006820F44D
:1006B00080501E49443908600298504501D10120FC
:1006C00000E000200690069830B91648007840F007
:1006D000800040B2134908700598012833D106986C
:1006E000012830D11248406800F4002020BB039854
:1006F000FFF7C8FE0B48007840F0800040B209497F
:10070000087020E00000010823016745043C024016
:10071000AB89EFCD6D5D010888E600200030004018
:10072000115C01089C0400209404002074380240ED
:1007300000000808003002407048007840F0C00017
:1007400040B26E490870ABE068B26C49087005F0C1
:10075000010008B16A4801E04FF0006004462046FD
:10076000FFF712FD30B16548007840F0800040B2DC
:100770006249087094E068B2604908706148006896
:1007800040F480505F49086005F0010018B15C48F2
:1007900003E076E02FE04FF000600446DFF8689158
:1007A00001205A4988604FF0000805E02068574949
:1007B0000860241D08F10108C845F7D35348D0F854
:1007C00000A05048006820F480504E49086050480E
:1007D000C0F800A008F101004D49486008222046F9
:1007E000FFF7E9FD30B14548007840F0800040B2A5
:1007F0004249087054E068B24049087005F00101B0
:100800000491FFF7EEFC0499484000F0010078B332
:10081000404C14E001200190206878B1002609E0E6
:1008200020680199084000B106E00198400001905D
:10083000701C86B2202EF3DB00BF03E0241DB4F150
:10084000016FE7D300BFB4F1016F12D2216801201C
:10085000B04081430191042201A92046FFF7ABFD7E
:1008600030B12648007840F0800040B2234908703B
:1008700006E02248007840F0800040B21F4908702E
:100880000EE02548006820F07F4038B922484068D3
:1008900020B922482249086000BFFEE700E000BFFF
:1008A00028E00898C0F3D400B0F5002F22DA102019
:1008B00012490870FFF7ACFC50B90899C1F3D40194
:1008C0000F4A88181449099AFFF775FD074609E091
:1008D0000899C1F3D40101F100600F49099AFFF7AB
:1008E0006AFD074637B10548007840F0800040B205
:1008F000024908700BB0BDE8F08F00009C04002096
:100900000000080830380240BEFF010000300240FD
:1009100088E6002080FF0F08940400200400FA05F8
:100920000CED00E02DE9F05F0546002092469B4665
:1009300088460646814640241BE0284641464746F5
:10094000224600F032FB53465A46C01A914110D35A
:1009500011461846224600F019FB2D1A67EB0108D4
:100960004F4622460120002100F010FB17EB000942
:100970004E41201EA4F10104DFDC484631462A46E0
:100980004346BDE8F09F40EA01039B0703D009E01E
:1009900008C9121F08C0042AFAD203E011F8013B6B
:1009A00000F8013B521EF9D27047D2B201E000F8C4
:1009B000012B491EFBD270470022F6E710B5134603
:1009C0000A4604461946FFF7F0FF204610BD30B531
:1009D00004460020034600E05B1C934203D2E05C27
:1009E000CD5C401BF8D030BD0FB400B58DB010A960
:1009F00009900B9000914FF0FF300A9000200C906E
:100A000005480690054807906A4609A80F9900F026
:100A100003FB0DB05DF814FB3510000853100008FF
:100A20002DE9FF5F1D464FF0FF3BD5E9014691469A
:100A30005F464FF00008A9697F1C01988847296A22
:100A4000824688470028F6D1BAF1FF3F0CD024F443
:100A5000C064002E19DD600614D5BAF12B0F09D041
:100A6000BAF12D0F0ED103E0584604B0BDE8F09F57
:100A700044F48064A9697F1C01988847761E8246E9
:100A8000002E02DDBAF1300F03D0B9F1000F26D0ED
:100A900032E0A969761E44F400747F1C01988847EF
:100AA0008246002E05DDBAF1780F06D0BAF1580F54
:100AB00003D0B9F1000F10D01EE0B9F1000F02D041
:100AC000B9F1100F18D1A969761E24F400747F1CA7
:100AD000019888478246102002E0082000E00A20A2
:100AE000814609E008FB0908A969761E44F40074F0
:100AF0007F1C019888478246002E05DD49465046F6
:100B000000F075FA0028EDDAE96901988847A00538
:100B100002D46FF00100A8E7E00725D1600613D5E5
:100B2000600502D5C8F1000000E0404629680A1DB2
:100B30002A600968220501D5087015E0220701D551
:100B4000088011E008600FE02868011D2960006836
:100B5000210502D580F8008006E0210702D5A0F823
:100B6000008001E0C0F8008038467EE72DE9FE4FA6
:100B7000804681EA0300C00F0C46009021F000413E
:100B800023F00045B8EB0200A94105D240462146BA
:100B900090461C460B46024623F00040104347D0C7
:100BA000270DC7F30A00C3F30A510290401A0190BF
:100BB00040286BDAC3F3130040F4801B0098924680
:100BC00020B10023D2EB030A63EB0B0B01985946CB
:100BD000C0F14002504600F0D9F906460D46504695
:100BE0005946019A00F0F1F910EB08006141002428
:100BF00087EA115284EAE7731A4340D0009A62B33D
:100C0000019A012A4FEA075215DC001B61EB020131
:100C10004FF0004202EA0752CDE90042001C41F5C4
:100C2000801132462B4600F06BFA03B0BDE8F08F1E
:100C300040462146F9E7001B61EB0201001C41F52B
:100C4000801300185B412018A2F5001747EB030141
:100C500040EAD570B6196D4111E06D084FEA3606CD
:100C600045EAC0754FEA0752001B61EB0201001C08
:100C700041F5801149084FEA3000001951413246D0
:100C80002B4603B0BDE8F04F00F02BBA00980122CC
:100C900040000023D0EB020263EBE0730098214692
:100CA0004FEAE074B8EB000061EB0401E9E783F080
:100CB00000435BE781F0004158E72DE9FE4F81EAF0
:100CC000030404F0004421F0004100944FF0000BB5
:100CD00023F0004350EA01045ED052EA03045BD0E3
:100CE000C3F30A54C1F30A552C44A4F2F33401941B
:100CF000A0FB0254C1F3130141F48011C3F31303A9
:100D000043F4801301FB024400FB034E840A970A5C
:100D100044EA815447EA8357A4FB076802958D0A89
:100D200005FB07854FEA932C04FB0C542705029D15
:100D30004FEA065847EA1637B5EB08056EEB070C85
:100D4000870E920E47EA811742EA8312A7FB02013F
:100D5000B6EB0B0164EB00042B0D43EA0C335E1879
:100D600044EB1C50DA465146E7FB0201C5F313047D
:100D70004FEA0B3343EA14534FEA0432019C43EA2F
:100D80000603A4F10C040294009CCDE900B400F029
:100D9000B7F903B0BDE8F08F00200146F9E72DE96F
:100DA000F04D81EA030404F0004B21F000451446A5
:100DB0004FF0000A23F0004150EA050220D054EA27
:100DC00001021DD0C5F30A570246C5F31303C1F350
:100DD0001300C1F30A5640F4801543F48013A7EBC7
:100DE0000608101BD64608F2FD3873EB050002D347
:100DF00008F1010801E092185B41B8F1000F03DA35
:100E000000200146BDE8F08D00204FF48011064619
:100E100084460EE0171B73EB050705D3121B63EB2B
:100E2000050306434CEA010C49084FEA30009218CA
:100E30005B4150EA0107EDD152EA030012D082EA89
:100E4000040083EA0501084305D0101BAB4106D21C
:100E50000122002306E000224FF0004302E06FF081
:100E6000010253101AEB06004CEB085110EB0A007C
:100E700041EB0B01BDE8F04D00F033B90EB5C10FE9
:100E800080EAE0700844CA07002140F233438DE84D
:100E90000E000A460B4600F033F903B000BD0EB554
:100EA00040F2334102910021CDE900110A460B4680
:100EB00000F026F903B000BD70B5C1F30A5201F08D
:100EC00000450024C1F3130140F2FF3341F48011C7
:100ED0009A4201DA002070BD40F233439A42A2F2F6
:100EE000334203DC524200F060F800E090402C43B3
:100EF000F1D0404270BDC1F30A5210B5C1F31301E5
:100F000040F2FF3341F480119A4201DA002010BD13
:100F100040F233439A42A2F2334203DC524200F0E1
:100F200044F810BD904010BD01F0004330B421F0F2
:100F3000004150EA010206D00A0DA2F56072C1F329
:100F40001301002A02DC30BC00207047440F44EA41
:100F5000C104C100E01830BC00EBC25000F08AB8F8
:100F600030B50B46014600202022012409E021FA79
:100F700002F59D4205D303FA02F5491B04FA02F576
:100F80002844151EA2F10102F1DC30BD202A04DB49
:100F9000203A00FA02F1002070479140C2F120038C
:100FA00020FA03F3194390407047202A04DB203ACB
:100FB00021FA02F00021704721FA02F3D040C2F179
:100FC00020029140084319467047202A06DBCB17C0
:100FD000203A41FA02F043EAE07306E041FA02F3F4
:100FE000D040C2F1200291400843194670473A2888
:100FF00000D2303820F02002412A01D3A2F137007C
:10100000884201D34FF0FF3070470000026811445E
:101010001378016018467047D16004495161044952
:10102000116200211161114600F000B90D10000895
:1010300021120008426842B1016811F8013B23B156
:10104000521EC0E90012184670470121C160881E77
:10105000704742685AB1C368016843B983688B42DC
:1010600005D0491E521CC0E90012002070474FF005
:10107000FF3070470029A8BF7047401C490008BFD7
:1010800020F00100704710B4B0FA80FC00FA0CF0B8
:1010900050EA010404BF10BC704749B1CCF12004F0
:1010A00021FA04F411FA0CF118BF0121214308437D
:1010B000A3EB0C01CB1D4FEA00614FEA102042BFA9
:1010C000002010BC704700EBC35010440029A4BF9F
:1010D00010BC7047401C490008BF20F0010010BC44
:1010E000704710B5141E73F1000408DA401C41F17A
:1010F000000192185B411A4301D120F0010010BD9C
:101100002DE9F04D92469B4611B1B1FA81F202E011
:10111000B0FA80F220329046FFF738FF04460F46BF
:1011200040EA0A0041EA0B0153465A46084313D0ED
:10113000114653EA010019D0C8F140025046FFF7AA
:1011400034FF05460E46504659464246FFF71EFFFD
:10115000084305D0012004E020463946BDE8F08D63
:101160000020054346EAE0762C4337430A9863059E
:10117000E40AA0EB08000022FD0A44EA47540A30C2
:1011800002D500200146E9E7010510196941DDE9B2
:10119000084500196941BDE8F04DA2E7C1F30A52C4
:1011A000C1F3130140F2FF3341F480119A4202DA95
:1011B00000200146704740F233439A42A2F2334284
:1011C00002DC5242FFF7F1BEFFF7E0BE30B5041E6D
:1011D00071F1000404DB4FF00044404264EB010174
:1011E000141E73F1000405DB1C464FF0004352420D
:1011F00063EB0403994208BF904230BD064C074D93
:1012000006E0E06840F0010394E8070098471034D6
:10121000AC42F6D3FFF74AF83C6501085C6501086B
:10122000C0B24FF4F05100F099B900002DE9F34F2E
:101230008BB04FF0000801F10C000C464FF0010B91
:1012400046460DF1080A0190626901210198904714
:10125000051E2DD0252D2CD0216A8847C0B162698A
:10126000012101989047216A88470028F7D1411E43
:1012700062690198904700E0761CA1690B98884745
:10128000216A88470028F7D1E1690B988847DBE796
:10129000A1690B9888470746A84201D1761CD3E77D
:1012A000E1690B9888477F1C02D1B8F1000F6FD01D
:1012B00047E1002762693D463946019890472A2850
:1012C00004D162690121019890470125DFF88892D5
:1012D0006269012101989047A0F130010A290AD2E0
:1012E0004F45E5DC07EB870100EB4107303FDFD4DA
:1012F00045F01005ECE7E90601D46FF000476C28D3
:101300000AD04C2814D0682815D06A280DD074282B
:101310001CD07A281AD01DE06269012101989047FB
:101320006C2802D045F0040514E045F002050DE0FC
:1013300045F020050AE0626901210198904768287C
:1013400002D045F0080505E045F400656269012119
:1013500001989047C4E9015765283DD019DC582809
:101360007AD00CDC452837D004DC252826D041284B
:1013700031D131E046282FD047282CD12CE05B28F2
:1013800077D0612828D063287CD0642823D15AE004
:10139000D1E06F2848D008DC66281DD067281BD014
:1013A000692821D06E2816D127E0702845D07328EF
:1013B00068D0752847D078280DD14DE0A1690B98E9
:1013C0008847054625283FF469AFE1690B988847AF
:1013D0006D1C3FF46AAFB4E023466A466FF001002B
:1013E0000B99AFF300809FE045F040006060A807D4
:1013F00023464FF0000236D43EE0E8077FF447AFC3
:101400002068011D21600068290501D506701BE7D1
:10141000290701D5068017E7A90703D5F117C0E909
:10142000006111E706600FE745F040006060A80723
:1014300023464FF0080216D41EE040F60E0125EABE
:101440000100606016E045F040006060A807234698
:101450004FF00A0207D40FE045F040006060A80793
:1014600008D5234610226FF001000B99AFF30080DE
:101470005AE007E0234610226FF001000B99FFF7B6
:10148000CFFA51E04FF000094F464B46632802D097
:101490005B2807D041E02079C00601D40120A0607C
:1014A00001273AE062690121019890475E2805D141
:1014B0004FF001096269494601989047216939B99D
:1014C00000210A46534643F82120491C0829FADB2B
:1014D000B0B3216969B9C11700EBD16253110AEBAE
:1014E000830122F01F02821A01200B6890400343FF
:1014F0000B6062690121019890475D28E8D1B9F13C
:10150000000F09D00020514651F82020D24341F865
:101510002020401C0828F7DB02AB224600976FF022
:1015200001000B99AFF3008000280CDA401C08D1B1
:10153000BBF1000F05D04FF0FF300DB0BDE8F08FCC
:10154000FFE74046F9E7E90701D108F10108064441
:101550004FF0000B78E60000CCCCCC0C7F2801D9F2
:10156000002208E0064A02EB5002C007127800D1C0
:10157000120902F00F02012090400840704700005D
:101580009462010870B58C1810F8015B15F0070320
:1015900001D110F8013B2A1106D110F8012B03E00C
:1015A00010F8016B01F8016B5B1EF9D12B0705D414
:1015B0000023521E0DD401F8013BFAE710F8013B5D
:1015C000CB1A921C03E013F8015B01F8015B521E79
:1015D000F9D5A142D8D3002070BD00BFFEE70000BE
:1015E00010B5044800F0E8F8BFF3408FBFF3608FF8
:1015F00010BD00000064004010B5044800F0DCF8A5
:10160000BFF3408FBFF3608F10BD00000068004043
:101610001FB504460E2C03DB4FF0FF3004B010BDA5
:1016200004F10E00012101FA00F0A140084317491E
:101630000968814315480160029820F00400001DEC
:1016400081080290019861F3820001900F482430D4
:1016500004F10E01019A40F8312040F8342000EBEB
:10166000C100029A42600948243000EBC400426085
:1016700053B90846012101FA00F0A140084303498B
:1016800009680843014908600020C7E71C6600405C
:1016900070B504460E464548844214D1444800685B
:1016A00040F000704249086041482030006840F036
:1016B00000703F49203108603D48006820F000700C
:1016C0003B4908601AE03B48844214D1384800681E
:1016D00040F080603649086035482030006840F0AE
:1016E00080603349203108603148006820F0806014
:1016F0002F49086002E04FF0FF3070BD01202060EC
:1017000042F2107505E0606800F0010000B102E0EF
:101710006D1E002DF7DC00BF15B96FF00100ECE77E
:10172000206840F01C002060E6612048844218D107
:1017300004F50074206840F001002060206820F467
:101740007F402060206840F4606020606FF070404F
:10175000E06000206061206820F001002060A4F5B6
:101760000074606940F0020060611048844203D157
:10177000142006F076F802E0402006F072F82068A7
:1017800020F00100206042F2107505E0606800F072
:10179000010000B902E06D1E002DF7DC00BF15B995
:1017A0006FF00200A9E70020A7E7000000640040F6
:1017B00020380240006800402DE9F84F05464FF000
:1017C000000AD5F8B00100904FF4DA70405900F0EB
:1017D0000F064FF4DA704059C0F30724C4EBC4007D
:1017E0004A4901EB4000D0F80090B04636B90120DC
:1017F000474908702020E860BDE8F88F082E02DD18
:101800006FF0070A5AE0C4EBC400404901EB400006
:10181000407B00F0020040B90098C0F3D40081443E
:10182000009808EBD0001FFA80F8C4EBC4003749D9
:1018300001EB4000806850B1C4EBC40001EB4000F4
:10184000D0F808C05346324628460099E047009831
:10185000C0F34000C8B9C4EBC4002C4901EB400000
:10186000406840450ED3002706E005F5DC70C05DFA
:1018700009F80700781C87B2B742F6DB012025493A
:1018800008701BE06FF0060A18E0C4EBC4001F49A3
:1018900001EB4000407B00F0080078B9009820F090
:1018A0000200009033464A462846009900F08AF824
:1018B0008246009820F00200801C00902020E86002
:1018C000C4EBC400114901EB4000806880B1BAF15B
:1018D000000F01D14FF0010AC4EBC4000B4901EB2A
:1018E0004000D0F808C05346324628460099E047E9
:1018F0000098C0F3400030B92EB100231A462846A4
:10190000009900F05FF800BF76E70000B004002007
:101910009D0400209E040020FCB504460E460020D5
:1019200000900190019866F31F700190C4EBC40011
:10193000234901EB4000017B019861F31B6001909A
:10194000C4EBC4001E4901EB4000477B0E2C02DBB8
:101950006FF00300FCBD07F0040020BB07F001009E
:1019600050B1009820F00200801C410800900198BE
:1019700061F34100019008E0009820F00200410866
:101980000090019861F341000190009820F07040B0
:10199000A0F180500090009820F0706000F170601D
:1019A0000090002504E000200190401E00900125D9
:1019B000E0B22B46DDE90021FFF72AFE0020C9E74F
:1019C000B0040020FFB583B0044616460020009006
:1019D00001902748844202D02648844201D1082B36
:1019E00003DD4FF0FF3007B0F0BDA068850E002189
:1019F00006E005F0010000B104E06D10481C81B262
:101A00000329F6DB00BF032908DB206840F0010052
:101A10002060206820F001002060002104F5C070E3
:101A200000EB011043600498C0F34000A8B9A3B1D3
:101A3000002204E0B05C0DF80200501C82B29A4211
:101A4000F8DB04F5C07000EB0110009F876004F51F
:101A5000C07000EB0110019FC760049840F00507BB
:101A600004F5C07000EB011007600020BBE7000028
:101A700000640040006800402DE9F84F04464FF034
:101A8000000AD4F80A000090A07B00F00F0700982D
:101A9000C0F30365C5EBC500484901EB4000D0F831
:101AA0000080B946B8F1000F01D1BDE8F88F082FCA
:101AB00006DD6FF0070A0221204609F051F862E0C6
:101AC000C5EBC5003D4901EB4000407B00F0020042
:101AD00040B90098C0F3D4008044009809EBD000CE
:101AE0001FFA80F9C5EBC500344901EB400080685E
:101AF00058B16068C5EBC501304A02EB4101D1F82D
:101B000008C053463A460099E0470098C0F34000A9
:101B1000D0B9C5EBC500294901EB400040684845F4
:101B20000BD3002606E004F11000805D08F80600E3
:101B3000701C86B2BE42F6DB25E06FF0060A042177
:101B4000204609F00DF81EE0009820F002000090F9
:101B50003A46414604F11000FEF715FF102204F149
:101B6000080104F11800FEF70EFFD4F81A0020F067
:101B70000201C4F81A1020460AF031F9009820F04A
:101B80000200801C0090C5EBC5000C4901EB400031
:101B9000806880B1BAF1000F01D14FF0010A60688E
:101BA000C5EBC501054A02EB4101D1F808C0534617
:101BB0003A460099E04700BF77E70000B0040020F4
:101BC0000346042B15D007DC7BB1012B0ED0022B72
:101BD0000DD0032B12D10BE0202B0BD0212B0AD0E0
:101BE000222B09D0232B09D107E008E007E006E00B
:101BF00005E004E003E002E001E000E000BF00BF18
:101C0000002070470020704710B5044B044A4FF481
:101C10007A71044813F040FF002010BDE4DD00207D
:101C200024DC00206805002070B504460D462146DE
:101C300002482A6813F0F3FE002070BD68050020FA
:101C400010B5024800F0C0F810BD0000E4DA002032
:101C500010B5024800F0B8F810BD000044DB0020C9
:101C60000146087810381823B0FBF3F20848805C6E
:101C7000C865032A05D908686FF30900001D886547
:101C800003E008686FF309008865886D70470000FD
:101C900074620108014600208A6A8B69CBB932B1AF
:101CA000012A0DD0022A03D0032A10D10EE000BF72
:101CB000CB6A03F08073B3F1807F00D1012007E08D
:101CC000CB6AB3F1C07F00D1012001E000E000BF8A
:101CD00034E08B69B3F5005F1AD132B1012A07D025
:101CE000022A03D0032A11D10AE000BF01200EE02E
:101CF000CB6A03F08073B3F1807F00D1012006E04E
:101D0000CB6AB3F1C07F00D1012000E000BF15E035
:101D100032B1012A05D0022A04D0032A0CD103E0F3
:101D200000BF00BF012008E0CB6A03F08073B3F16D
:101D3000807F00D1012000E000BF00BF70477047E6
:101D400010B54FF4007000F005FA10BD10B502A0F8
:101D500008F074FE10BD000048414C206572726F9F
:101D6000720A000070B50A480468001D0568001D6D
:101D70000668344454B108220649204605F0C2F9E9
:101D8000042204491031284605F0BCF970BD00005A
:101D9000107AFF1F46030020014691F83500022803
:101DA00003D08020486501207047052081F8350068
:101DB0000868006820F001000A6810600020F3E75E
:101DC000014691F835007047F8B5044600200090B0
:101DD0008C4800684FF41651B0FBF1F7A56D2E68E2
:101DE00094F85C1008208840304098B12068006862
:101DF00000F0040070B12068006820F00400216841
:101E0000086094F85C1008208840A860606D40F07D
:101E10000100606594F85C1001208840304068B192
:101E20002068406900F0800040B194F85C10012007
:101E30008840A860606D40F00200606594F85C1016
:101E400004208840304068B12068006800F002003B
:101E500040B194F85C1004208840A860606D40F0A8
:101E60000400606594F85C1010208840304078B31E
:101E70002068006800F0080050B394F85C1010204F
:101E80008840A8602068006800F4802080B1206845
:101E9000006800F4002028B9206CC8B12046216CED
:101EA000884715E0A06C98B12046A16C88470FE0E8
:101EB0002068006800F4807028B92068006820F06D
:101EC000080021680860206C10B12046216C88470A
:101ED00094F85C10202088403040002865D02068AD
:101EE000006800F0100000285FD094F85C102020FB
:101EF0008840A86094F83500052828D1206800683B
:101F000020F01600216808602068406920F08000F9
:101F100021684861206C08B9A06C28B1206800686D
:101F200020F008002168086094F85C103F20884089
:101F3000A86000BF002084F8340000BF012084F8AE
:101F40003500206D10B12046216D8847F8BD20680E
:101F5000006800F4802080B12068006800F4002050
:101F600028B9606C10B12046616C88471DE0E06BB9
:101F7000D8B12046E16B884717E02068006800F47C
:101F8000807068B92068006820F01000216808603F
:101F900000BF002084F8340000BF012084F8350021
:101FA000E06B10B12046E16B8847606D38B3606D1F
:101FB00000F00100F0B1052084F8350020680068C9
:101FC00020F001002168086000BF0098401C0090CC
:101FD000B84200D905E02068006800F00100002840
:101FE000F3D100BF00BF002084F8340000BF0120FF
:101FF00084F83500E06C10B12046E16C884700BFE2
:10200000A4E700007C0300202DE9F04104460025F0
:1020100000F0BCF9074614B90120BDE8F081606A00
:1020200000B100BF00BF002084F8340000BF0220D0
:1020300084F835002068006820F0010021680860FD
:102040000AE000F0A3F9C01B052805D9202060652F
:10205000032084F83500E0E72068006800F0010004
:102060000028EED12068056821480540D4E9010127
:102070000843E16808432169084361690843A1698D
:102080000843E1690843216A08430543606A04285C
:1020900003D1D4E90B01084305432068056020689B
:1020A000456925F00705606A0543606A04280DD17B
:1020B000A06A0543E06A48B12046FFF7EBFD28B16E
:1020C00040206065012084F83500A6E7206845615E
:1020D0002046FFF7C5FD064694F85C103F20884077
:1020E000B06000206065012084F83500002094E78E
:1020F0003F8010F070B5044600F048F906462546CA
:10210000681C10B104480078054400BF00F03EF997
:10211000801BA842FAD370BD7803002038B504466E
:102120002146094812F09AFA2146084813F024FA89
:1021300042F210707F234FF416720221009004487F
:102140000DF032F938BD0000041100208413002086
:1021500078D6002010B5044604480068204020B11D
:10216000024804602046FFF7D9FF10BD143C01402F
:10217000F8B502460B460025002400200021DCE0D3
:10218000012606FA01F51E6806EA0504AC4273D181
:102190005E68012E08D05E68022E05D05E68112EA2
:1021A00002D05E68122E13D190684F000326BE4005
:1021B000B0434F00DE68BE40304390605068012657
:1021C0008E40B0431E79C6F300168E4030435060F7
:1021D000D0684F000326BE40B0434F009E68BE400B
:1021E0003043D0605E68022E02D05E68122E13D19A
:1021F000CF0802F1200656F827004E07F70E0F26EB
:10220000BE40B0434F07FF0E1E69BE403043CF08AB
:1022100002F1200646F8270010684F000326BE4052
:10222000B0431E7906F003064F00BE4030431060F5
:102230005E6806F08056B6F1805F7DD100BF002653
:102240000096404E366846F480463E4F3E603E461D
:10225000366806F48046009600BF00BF3A4E8F08ED
:1022600056F827008E07370F0F26BE40B043374E73
:10227000B24202D1002624E05EE0354EB24201D1E6
:1022800001261EE0334EB24201D1022619E0324E41
:10229000B24201D1032614E0304EB24201D10426ED
:1022A0000FE02F4EB24201D105260AE02D4EB24278
:1022B00001D1062605E02C4EB24201D1072600E0EE
:1022C00008268F073F0FBE4030431F4E8F0846F849
:1022D0002700264E3068A0435E6806F48036B6F5C7
:1022E000803F00D12043214E3060361D3068A0432E
:1022F0005E6806F40036B6F5003F00D120431B4E61
:10230000361D3060361D3068A0435E6806F48016C6
:10231000B6F5801F00D12043144E08363060361DBC
:102320003068A0435E6806F40016B6F5001F00D1C1
:1023300020430E4E0C363060491C1029FFF420AFAC
:10234000F8BD000044380240083801400000024057
:102350000004024000080240000C0240001002404D
:102360000014024000180240001C0240003C0140E2
:10237000024613690B400BB1012000E000207047BA
:102380000AB1816101E00B04836170470148006874
:102390007047000070030020704770472DE9F84F28
:1023A0000446206847692068D0F80480002594F826
:1023B0003E90C7F3002040B1C8F3002028B145F09B
:1023C00001056FF4807021684861C7F3402040B177
:1023D000C8F3002028B145F002056FF400702168B1
:1023E0004861C7F3802070B3C8F3002058B3CA46D1
:1023F000B4F82AB094F83D60206B0090BAF1200F39
:102400000FD1BBF1000F0CD1212E06D0292E04D004
:10241000282E06D10098212803D1204604F002FC82
:1024200011E06FF480602168486145F00405B9F15E
:10243000100F02D0B9F1400F05D12068006840F4B8
:10244000007021680860C7F3C02040B1C8F30020C5
:1024500028B145F008056FF40060216848612DB18E
:10246000206C28432064204603F0E2FDBDE8F88F8D
:102470002DE9F0470546002728684668D5F82C80E6
:1024800095F83E9095F83DA0B9F1100F02D0B9F142
:10249000400F78D1286887692868446904F00100F2
:1024A00060B9B8F52A0F02D0B8F12A4F01D1012046
:1024B00000E00020012801D1BDE8F08704F0010010
:1024C00048B1C6F3402030B1284603F04DFD284600
:1024D00004F087FAACE0C4F3C00030B1C6F340208A
:1024E00018B1284604F034F9A2E0C4F3400030B13A
:1024F000C6F3402018B1284604F03FF998E0C7F32E
:102500008000F8B12868406800F40060B0F5006F02
:10251000E0D0C4F3C01048B1C6F3802030B1C4F39A
:10252000800018B9284604F0A7F881E0C4F38000C1
:1025300000287DD0C6F34020002879D0284604F03A
:1025400043F875E02868406800F40060B0F5006F5B
:102550006ED0C4F3801048B1C6F3802030B1C4F30C
:10256000800018B9284603F0E7FE61E0C4F380005C
:1025700000285DD0C6F34020002859D0284603F03B
:1025800048FE55E0FFE7286C10B12868446903E075
:102590002868876928684469C4F3400058B1C6F3C5
:1025A000402040B1286C08B1286887693946284620
:1025B00004F004FB3CE0C4F3001030B1C6F340204B
:1025C00018B1284604F07EFB32E0BAF1210F02D0A8
:1025D000BAF1290F16D1C4F3C01048B1C6F3802058
:1025E00030B1C4F3800018B9284604F0C4FA1FE0E3
:1025F000C4F38000E0B1C6F34020C8B1284604F01F
:10260000ADFA15E0C4F3801048B1C6F3802030B1B4
:10261000C4F3800018B9284604F07DFA08E0C4F33A
:10262000800028B1C6F3402010B1284604F066FAB5
:1026300000BF41E710B504460748844203D1012199
:10264000064812F02BF80648844203D101210548C0
:1026500012F0A2FF10BD00000CDA002004110020CF
:10266000B8D900208413002070B504460CB90120AD
:1026700070BD94F83D0028B9002084F83C00204645
:1026800000F040FC242084F83D002068006820F021
:102690000100216808602068006840F4004021685B
:1026A00008602068006820F400402168086001F09C
:1026B000A9FD05465C496068884206D85B488542AA
:1026C00001D2012007E0002005E05948854201D2EF
:1026D000012000E00020012800D1C9E75548B5FBE2
:1026E000F0F62068406820F03F00304321684860E1
:1026F0004D496068884201D8701C07E04FF496701D
:1027000070434FF47A71B0FBF1F0401C2168096A04
:1027100021F03F010843216808624349606888420C
:1027200014D8681E61684900B0FBF1F0401CC0F38A
:102730000B00042801D204203DE0681E61684900B6
:10274000B0FBF1F0401CC0F30B0034E0A06838B9D6
:10275000681E616801EB4101B0FBF1F0401C0AE02A
:10276000681E616801EBC10202EB0111B0FBF1F0E0
:10277000401C40F48040C0F30B0008B901201AE06F
:10278000A06848B9681E616801EB4101B0FBF1F037
:10279000401CC0F30B000CE0681E616801EBC10235
:1027A00002EB0111B0FBF1F0401CC0F30B0040F450
:1027B000804040F400402168C9694CF6FF729143A3
:1027C00008432168C861D4E9070108432168096802
:1027D00021F0C001084321680860D4E903100843D0
:1027E0002168896848F2FF32914308432168886074
:1027F000D4E9050108432168C96821F0FF010843B5
:102800002168C8602068006840F001002168086005
:1028100000202064202084F83D000020206384F8FC
:102820003E0000BF24E70000A086010080841E0057
:1028300000093D0040420F007047000010B50446FB
:102840000748844203D10021064811F027FF0648BB
:10285000844203D10021054812F09EFE10BD000005
:102860000CDA002004110020B8D9002084130020C5
:1028700010B504460748844203D10021064811F0F0
:102880000DFF0648844203D10021054812F084FE62
:1028900010BD00000CDA002004110020B8D900207F
:1028A000841300202DE9F8430446894617469846CC
:1028B000089EFFF76BFD054694F83D0020287DD16A
:1028C00019230122B2492046009504F0EFFA10B115
:1028D0000220BDE8F88300BF94F83C00012801D134
:1028E0000220F6E7012084F83C0000BF2068006861
:1028F00000F0010028B92068006840F0010021685C
:1029000008602068006820F40060216808602220C8
:1029100084F83D00102084F83E00002020646762A7
:10292000A4F82A80608D20859A48E0622B463246C2
:102930004946204603F052FD08B10120C9E7208D29
:1029400088B900BF0020009020684069009020688E
:102950008069009000BF00BF2068006840F40070EC
:102960002168086047E0208D012817D120680068A1
:1029700020F480602168086000BF0020009020687B
:102980004069009020688069009000BF00BF206807
:10299000006840F40070216808602CE0208D022857
:1029A00018D12068006820F48060216808602068E1
:1029B000006840F400602168086000E0E6E000BFC5
:1029C0000020009020684069009020688069009095
:1029D00000BF10E02068006840F480602168086053
:1029E00000BF002000902068406900902068806946
:1029F000009000BF00BFBAE0208D03287ED8208D54
:102A0000012815D12A463146204604F0F4FA08B1CF
:102A100001205EE720680069616A0870606A401CF6
:102A20006062208D401E2085608D401E60859EE086
:102A3000208D02282AD1334600225749204600958E
:102A400004F034FA08B1012043E72068006840F43C
:102A500000702168086020680069616A0870606A17
:102A6000401C6062208D401E2085608D401E608568
:102A700020680069616A0870606A401C6062208D8D
:102A8000401E2085608D401E608570E03346002228
:102A900041492046009504F009FA08B1012018E7E1
:102AA0002068006820F48060216808602068006960
:102AB000616A0870606A401C6062208D401E20853B
:102AC000608D401E608533460022334920460095C4
:102AD00004F0ECF908B10120FBE62068006840F43E
:102AE00000702168086020680069616A0870606A87
:102AF000401C6062208D401E208500E010E0608D4B
:102B0000401E608520680069616A0870606A401C28
:102B10006062208D401E2085608D401E608526E00D
:102B20002A463146204604F066FA08B10120D0E674
:102B300020680069616A0870606A401C6062208DCC
:102B4000401E2085608D401E608520684069C0F36E
:102B5000800060B120680069616A0870606A401C8A
:102B60006062208D401E2085608D401E6085208D16
:102B700000287FF441AF202084F83D00002084F835
:102B80003E0000BF84F83C0000BFA2E60220A0E6A1
:102B9000020010000000FFFF0400010038B50446E9
:102BA0000020009094F83D00202871D13948006839
:102BB0001925B0FBF5F04FF47A75B0FBF5F000EB9A
:102BC000C00505EB0010009000BF0098401E00906B
:102BD000009890B900202063202084F83D00002058
:102BE00084F83E00206C40F02000206400BF0020EC
:102BF00084F83C0000BF012038BD20688069C0F324
:102C000040000028E1D100BF94F83C00012801D128
:102C10000220F1E7012084F83C0000BF2068006832
:102C200000F0010028B92068006840F00100256824
:102C300028602068006820F4006025682860222051
:102C400084F83D00102084F83E0000202064626279
:102C50006385608D20851048E062616420680068AB
:102C600040F48060256828602068006840F4807027
:102C70002568286000BF002084F83C0000BF206861
:102C8000406840F4E060256868600020B4E7FFE732
:102C90000220B1E77C0300200000FFFF2DE9F8438C
:102CA0000446894616461F46DDF82080FFF76EFB76
:102CB000054694F83D0020287ED119230122514970
:102CC0002046009504F0F2F810B10220BDE8F88328
:102CD00000BF94F83C00012801D10220F6E7012052
:102CE00084F83C0000BF2068006800F0010028B9AB
:102CF0002068006840F001002168086020680068D2
:102D000020F4006021680860212084F83D00102034
:102D100084F83E000020206466626785608D20850F
:102D20003948E0622B4642464946204603F0EEFB16
:102D300008B10120CAE700BF002000902068406968
:102D4000009020688069009000BF00BF44E02A46E0
:102D50004146204604F08FF950B1206C042805D17B
:102D60002068006840F40070216808600120ADE729
:102D7000606A007821680861606A401C6062608D4A
:102D8000401E6085208D401E208520684069C0F36C
:102D9000800070B1208D60B1606A007821680861A0
:102DA000606A401C6062608D401E6085208D401E00
:102DB00020852A46414600E022E0204604F048F8FB
:102DC00050B1206C042805D12068006840F40070E0
:102DD00021680860012079E7208D0028B7D120689C
:102DE000006840F4007021680860202084F83D00ED
:102DF000002084F83E0000BF84F83C0000BF65E777
:102E0000022063E7020010000000FFFF38B504460F
:102E10000020009094F83D0020286AD136480068D0
:102E20001925B0FBF5F04FF47A75B0FBF5F000EB27
:102E3000C00505EB0010009000BF0098401E0090F8
:102E4000009890B900202063202084F83D000020E5
:102E500084F83E00206C40F02000206400BF002079
:102E600084F83C0000BF012038BD20688069C0F3B1
:102E700040000028E1D100BF94F83C00012801D1B6
:102E80000220F1E7012084F83C0000BF20680068C0
:102E900000F0010028B92068006840F001002568B2
:102EA00028602068006820F40060256828602120E0
:102EB00084F83D00102084F83E0000202064626207
:102EC0006385608D20850D48E0626164206800683C
:102ED00040F480702568286000BF002084F83C0022
:102EE00000BF2068406840F4E0602568686000200A
:102EF000BAE70220B8E700007C0300200000FFFFD3
:102F00007047704710B586B00446142101A8FDF73C
:102F100053FD55492068884241D100BF00200090F0
:102F20005248006840F002005049086008460068B6
:102F300000F00200009000BF00BF4FF4406001901D
:102F40001220029001200390032004900420059099
:102F500001A94748FFF70CF900BF00200090434843
:102F60001030006840F48000404910310860084685
:102F7000006800F48000009000BF00BF00221146EE
:102F8000212000F055F9212000F042F900221146DD
:102F9000222000F04DF9222000F03AF961E0354995
:102FA000206888425DD100BF002000902F48006853
:102FB00040F004002D4908600846006800F0040055
:102FC000009000BF00BF00BF0020009008460068CE
:102FD00040F0010008600846006800F00100009021
:102FE00000BF00BF481501901220029001200390FD
:102FF000032004900420059001A91F48FFF7B8F8AA
:103000004FF4807001901220029001200390032061
:1030100004900420059001A91848FFF7A9F800BF03
:103020000020009011481030006840F400000F4963
:10303000103108600846006800F40000009000BFEE
:1030400000BF00221146482000F0F2F8482000F0AE
:10305000DFF800221146492000F0EAF8492000F08C
:10306000D7F806B010BD00000058004030380240CC
:1030700000040240005C00400008024000000240E2
:103080007047704770B504460CB9012070BD4CF60E
:10309000CC402168086045F2555021680860D4E9A9
:1030A000001048602168A0688860FFF76FF9054646
:1030B00006E0FFF76BF9401B302801D90320E5E754
:1030C0002068C0680028F4D14AF6AA202168086068
:1030D0000020DBE701464AF6AA200A6810600020BB
:1030E0007047000003480068034909780844014913
:1030F00008607047700300207803002010B50D4869
:10310000006840F400700B4908600846006840F40D
:10311000806008600846006840F480700860032002
:1031200000F0C4F8002000F007F800F02BF80020B1
:1031300010BD0000003C024070B504460E48007807
:103140004FF47A71B1FBF0F00C490968B1FBF0F56E
:10315000284602F089F808B1012070BD102C07D272
:1031600000222146501E00F063F80548046001E08B
:103170000120F2E70020F0E7780300207C03002024
:103180007403002008B500BF002000900E480068BE
:1031900040F480400C4908600846006800F4804014
:1031A000009000BF00BF00BF00200090081F006813
:1031B00040F08050091F08600846006800F0805009
:1031C000009000BF00BF08BD4438024010B5014662
:1031D0000846002817DB00F01F0301229A400B4B22
:1031E000440943F8242000BF00BF00BFBFF34F8F46
:1031F00000BF00BF00BF00BF00BF00BFBFF36F8FA5
:1032000000BF00BF00BF00BF10BD000080E100E0B4
:1032100001460846002809DB00F01F0301229A40FE
:1032200043099B0003F1E023C3F8002100BF70476E
:103230002DE9F05F80460D461646002707F022FC78
:10324000074639462A46334601F00700C0F1070A0F
:10325000BAF1040F02D94FF0040A01E0C0F1070AE5
:10326000D14600F1040ABAF1070F02D24FF0000A6A
:1032700001E0A0F1030AD4464FF0010A0AFA09FA64
:10328000AAF1010A0AEA020A0AFA0CFA4FF0010B43
:103290000BFA0CFBABF1010B0BEA030B4AEA0B0434
:1032A0002146404607F0F6FBBDE8F09F00BF00F066
:1032B0000702064B19684FF6FF031940044B0B43F6
:1032C00043EA0221014B196000BF70470CED00E09A
:1032D0000000FA05704702461068416200207047FE
:1032E000F0B5034615461868446A21B944EA05401A
:1032F0001E68B06219E01868806A04EB104400226E
:1033000008E0186800F5827050F8220004EB1044C1
:10331000501CC2B2481E9042F3D844EA05471868D0
:1033200000F582704E1E40F826700020F0BD10B5EA
:103330000446D4F8040406F039F810BD70B504460C
:103340000D46C5EBC50304F13C0101EB8301CA68DE
:103350002946D4F8040405F056FF70BD70B5044644
:103360000D46C5EBC50304F5FE7101EB8301CA6888
:103370002946D4F8040405F0C6FF70BD10B5044614
:10338000D4F8040406F015F810BD70B504460E46D6
:1033900006F0800080280AD106F00F00C0EBC001C3
:1033A00004F13C0000EB81050120687009E006F0A3
:1033B0000F00C0EBC00104F5FE7000EB810500209A
:1033C000687006F00F00287000BF94F8BC03012855
:1033D00001D1022070BD012084F8BC0300BF294642
:1033E000206806F0E1FC00BF002084F8BC0300BFA9
:1033F00000BFEFE770B504460E4606F00F006168A7
:10340000884201D9012070BD06F0800080280AD1D1
:1034100006F00F00C0EBC00104F13C0000EB810599
:103420000120687009E006F00F00C0EBC00104F550
:10343000FE7000EB8105002068700020A87006F087
:103440000F00287000BF94F8BC03012801D10220AE
:10345000D9E7012084F8BC0300BF2946206806F0A4
:103460004BFF00BF002084F8BC0300BF00BFCAE7C9
:10347000024601F00F00C0EBC00302F5FE7000EB46
:103480008300806970472DE9F04705460E46904657
:103490001F464FF0000906F0800080280AD106F090
:1034A0000F00C0EBC00105F13C0000EB81040120DE
:1034B000607009E006F00F00C0EBC00105F5FE707A
:1034C00000EB81040020607006F00F002070C4F84B
:1034D0000880E770607808B12078E080022F01D181
:1034E0000020207100BF95F8BC03012802D1022002
:1034F000BDE8F087012085F8BC0300BF214628689D
:1035000006F05EFB00BF002085F8BC0300BF484604
:10351000EEE72DE9F04104460E461746984606F0C0
:103520000F00C0EBC00104F5FE7000EB8105EF60F9
:10353000C5F814800020A861687006F00F0028709C
:103540002069012800D12F6106F00F0028B9227CE4
:103550002946206806F0ACFD04E0227C294620685C
:1035600006F05EFF0020BDE8F08170B504460D4610
:1035700005F00F006168884201D9012070BD05F097
:10358000800080280AD105F00F00C0EBC00104F1D3
:103590003C0000EB81060120707007E0C5EBC5011F
:1035A00004F5FE7000EB8106002070700120B07001
:1035B00005F00F00307000BF94F8BC03012801D162
:1035C0000220DBE7012084F8BC0300BF31462068FD
:1035D00006F0D9FE05F00F0028B9217C04F57172C0
:1035E000206806F051FE00BF002084F8BC0300BF35
:1035F00000BFC3E72DE9F04104460E461746984642
:1036000006F00F00C0EBC00104F13C0000EB8105A7
:10361000EF60C5F814800020A8610120687006F0F2
:103620000F0028702069012800D12F6106F00F00DB
:1036300028B9227C2946206806F03AFD04E0227C65
:103640002946206806F0ECFE0020BDE8F0812DE957
:10365000FE4F044620680290029E206807F0CBF8D7
:1036600000287DD1206807F005F908B9BDE8FE8F74
:10367000206807F0FFF800F00200022805D120685A
:10368000406900F0020021684861206807F0F2F804
:1036900000F40020B0F5002F58D10025206807F075
:1036A000B9F882464FE00AF00100002848D0E9B29C
:1036B000206807F0D2F8804608F0010048B10121E7
:1036C00006F5306000EB451081602946204604F085
:1036D00021F908F00800082809D12946204604F0FD
:1036E000D3F8082106F5306000EB4510816008F042
:1036F0001000102805D1102106F5306000EB4510B0
:10370000816008F0200020280ED12069012805D111
:1037100004F571720121206806F0B6FD202106F53E
:10372000306000EB4510816008F40050B0F5005F98
:1037300006D14FF4005106F5306000EB4510816072
:103740006D1C4FEA5A0ABAF1000FACD1206807F09D
:1037500091F800F48020B0F5802F7ED1206800E041
:1037600012E207F04DF88246002586E00AF00100DB
:1037700000287FD0E9B2206807F056F8804608F0AC
:103780000100E8B305F00F0101208840019040F6E8
:1037900034008159019821EA000040F63401885133
:1037A000012106F5106000EB4510816020690128B9
:1037B00015D1C5EBC50104F13C0000EB8100C5EB60
:1037C000C502C16804F13C0000EB8200806801443E
:1037D000C5EBC50204F13C0000EB8200C160E9B218
:1037E0002046FFF7ABFD2069012810D145B9C5EB94
:1037F000C50104F13C0000EB8100406900B900E024
:1038000005E004F571720121206806F03DFD08F025
:103810000800082805D1082106F5106000EB4510C6
:10382000816008F01000102805D1102106F5106005
:1038300000EB4510816008F04000402805D1402190
:1038400006F5106000EB4510816008F002000228C8
:1038500008D1022106F5106001E012E00AE000EB59
:103860004510816008F08000802803D12946204659
:1038700004F010F96D1C4FEA5A0ABAF1000F7FF4F8
:1038800075AF206806F0F6FF00F00040B0F1004F81
:103890001CD140F60400805920F0010140F60400DC
:1038A000815194F8F403012807D1002084F8F4032F
:1038B00000212046FFF70EFD02E0204600F098FAB6
:1038C0002068406900F0004021684861206806F0E7
:1038D000D1FF00F40060B0F5006F0ED140F6080093
:1038E000805900F0010010B1204600F0D9FA20689C
:1038F000406900F4006021684861206806F0BAFF62
:1039000000F48050B0F5805F72D140F60400805919
:1039100020F0010140F6040081511021206806F0DA
:103920003FFF002726E04FF67F3106F5106000EBE1
:103930004710816006F5106000EB4710006820F426
:10394000001106F5106000EB471001604FF67F3163
:1039500006F5306000EB4710816006F5306000EB43
:103960004710006820F4001106F5306000EB4710A6
:1039700001607F1C6068B842D5D840F61C008059B1
:1039800040F0011140F61C008151206B70B1D6F857
:10399000840840F00B01C6F8841840F644008059B2
:1039A00040F00B0140F6440081510FE040F6140056
:1039B000805942F22B01084340F614018851081F38
:1039C000805940F00B014FF401608151D6F8000896
:1039D00020F4FE60C6F80008217C04F571722068AE
:1039E00006F052FC2068406900F48050216848616C
:1039F000206806F03FFF00F40050B0F5005F17D1DB
:103A0000206806F045F9206806F0E2FEE06000F06C
:103A1000F3FB0090227B2068009906F07BFF204694
:103A200000F0CEF92068406900F400502168486138
:103A3000206806F01FFF00F01000102846D1206813
:103A4000806920F01000216888610298D0F82090E9
:103A500009F00F00C0EBC00104F5FE7000EB810B14
:103A6000C9F3434002281AD147F6F07009EA000072
:103A700030B3C9F30A12DBF80C10029806F0FFFE0F
:103A8000C9F30A11DBF80C000844CBF80C00C9F3A9
:103A90000A11DBF818000844CBF8180010E0C9F34D
:103AA000434006280CD1082204F57171029806F0F3
:103AB000E6FEC9F30A11DBF818000844CBF8180039
:103AC0002068806940F0100021688861206806F055
:103AD000D1FE00F00800082808D1204600F08FF938
:103AE0002068406900F0080021684861206806F0FD
:103AF000C1FE00F48010B0F5801F0AD100252946D0
:103B0000204600F043F82068406900F480102168E6
:103B10004861206806F0AEFE00F40010B0F5001F0A
:103B20000AD100252946204600F039F8206840696E
:103B300000F4001021684861206806F09BFE00F048
:103B40008040B0F1804F08D12046FFF7F0FB20689D
:103B5000406900F0804021684861206806F08AFED4
:103B600000F0040004280FD12068D0F8049009F078
:103B70000400042802D12046FFF700FC20684068BA
:103B800040EA09002168486000BF6FE570B504464F
:103B90000D462946D4F8040405F072FC70BD70B5DA
:103BA00004460D462946D4F8040405F06CFC70BDAB
:103BB00070B58AB0044614B901200AB070BD2668F9
:103BC00094F8BD0328B9002084F8BC03204600F017
:103BD000A3F8032084F8BD03F06B00F4807008B9EB
:103BE00000212161206806F05BFA282204F110010F
:103BF0006846FCF7C8FE94E80F0006F06DF820B1A7
:103C0000022084F8BD030120D7E70021206806F0D8
:103C100047FE002531E00121C5EBC50204F13C005F
:103C200000EB82004170C5EBC50104F13C0000F8D7
:103C30002150C5EBC50100EB8100C5800021C5EB1B
:103C4000C50204F13C0000EB8200C170C5EBC50267
:103C500004F13C0000EB82008160C5EBC50204F179
:103C60003C0000EB8200C160C5EBC50204F13C00E2
:103C700000EB82004161681CC5B26068A842CAD8E6
:103C800000252AE00021C5EBC50204F5FE7000EB1B
:103C900082004170C5EBC50104F5FE7000F82150AB
:103CA0000021C5EBC50200EB8200C170C5EBC50267
:103CB00004F5FE7000EB82008160C5EBC50204F5DF
:103CC000FE7000EB8200C160C5EBC50204F5FE701A
:103CD00000EB82004161681CC5B26068A842D1D87F
:103CE000282204F110016846FCF74DFE94E80F000D
:103CF00006F0DCF820B1022084F8BD0301205CE767
:103D0000002084F83800012084F8BD03206806F004
:103D1000BDF8002051E7000010B586B0044614211C
:103D200001A8FCF749FE2068B0F1A04F42D100BFC6
:103D3000002000902048006840F001001E49086003
:103D40000846006800F00100009000BF00BF4FF47B
:103D5000C0500190022002900020039003200490A4
:103D60000A20059001A91548FEF702FA00BF124883
:103D7000001D006840F080000F49091D086000BF69
:103D8000002000900C481430006840F480400A493C
:103D9000143108600846006800F48040009000BFBD
:103DA00000BF00BF002211464320FFF741FA432025
:103DB000FFF72EFA06B010BD303802400000024076
:103DC00070B504460125E06808B9002506E0E06802
:103DD000022801D1012501E0FDF7B8FF2946D4F8FA
:103DE000040405F0C9FBD4F8040405F07FFB70BDA2
:103DF00010B50446D4F8040405F0A6FB10BD10B5B8
:103E00000446D4F8040405F0A6FB10BD70B50446C2
:103E10000D4600BF94F8BC03012801D1022070BDFB
:103E2000012084F8BC0300BF84F83850294620687C
:103E300006F051FD00BF002084F8BC0300BF00BFA6
:103E4000EDE710B5044604F57171D4F8040405F0EB
:103E5000AAFB10BD70B50446256800BF94F8BC03EA
:103E6000012801D1022070BD012084F8BC0300BFED
:103E7000A06A012806D1A069012803D0A86B40F4EC
:103E80008030A863206805F0F1FF206806F06AFC26
:103E900000BF002084F8BC0300BF00BFE3E70000C0
:103EA00010B50446D4F8040405F0D6FB2068D0F819
:103EB000000E40F001002168C1F8000E206A28B110
:103EC0000348006840F006000149086010BD00008A
:103ED00010ED00E0F8B5044600250026207800F03B
:103EE000010020B9207800F0040004282FD1002020
:103EF0005B498866FEF74AFA054606E0FEF746FA91
:103F0000401B022801D90320F8BD56480068C0F3C1
:103F1000C0600028F2D160688101207A41EA007017
:103F200050498431086001204D498866FEF72EFA19
:103F3000054606E0FEF72AFA401B022801D90320B5
:103F4000E2E748480068C0F3C0600028F2D020785B
:103F500000F0020002287DD100BF002000904148FF
:103F60004030006840F080503E49403108600846CB
:103F7000006800F08050009000BF00BF3A48006821
:103F800040F4807038490860FEF700FA054606E004
:103F9000FEF7FCF9401B022801D90320B4E73248A0
:103FA000006800F480700028F2D02E48703000685D
:103FB00000F440764EB3A08900F44070B04224D0A3
:103FC00028487030006820F44076012027490860B6
:103FD00000200860234870300660006800F001008F
:103FE00098B1FEF7D3F9054608E0FEF7CFF9401B7C
:103FF00041F28831884201D9032085E719487030A1
:104000000068C0F340000028EFD000BFA08900F492
:104010004070B0F5407F0CD112480830006820F4A1
:10402000F810134AE168114008430E49083108604E
:1040300007E00C480830006820F4F81009490831FE
:104040000860084870300068A189C1F30B0108437B
:10405000044900E002E07031086000BF002053E72F
:10406000000047420038024000700040400E4742C6
:10407000FFFCFF0F70B504460D460CB9012070BD62
:104080005848006800F00F00A84209D255490D7049
:104090000846006800F00F00A84201D00120EEE7BA
:1040A000207800F0020002281DD1207800F00400E2
:1040B000042805D14C48006840F4E0504A490860A3
:1040C000207800F00800082805D14748006840F42F
:1040D0006040454908604448006820F0F000A1684D
:1040E000084341490860207800F00100A8B36068E7
:1040F000012807D13C4808380068C0F34040B8B9EF
:104100000120BCE76068022802D06068032807D15C
:10411000354808380068C0F3406048B90120AEE770
:10412000314808380068C0F3400008B90120A6E70C
:104130002D48006820F00300616808432A490860A0
:10414000FEF724F9064609E0FEF720F9801B41F24C
:104150008831884202D9032091E707E022480068AD
:1041600000F00C006168B0EB810FEDD11D480068D4
:1041700000F00F00A84209D91A490D7008460068DE
:1041800000F00F00A84201D0012078E7207800F06D
:104190000400042807D11448006820F4E050E168C6
:1041A000084311490860207800F00800082808D169
:1041B0000D48006820F46040216940EAC1000A49C6
:1041C000086000F03FF808490968C1F30311074A85
:1041D000515CC8400649086006480068FEF7ACFF1D
:1041E00000204CE7003C0240083802407C62010895
:1041F0007C03002074030020014800687047000021
:104200007C03002000B5FFF7F7FF04490968C1F3FC
:104210008221034A515CC84000BD000008380240BA
:104220008C62010800B5FFF7E7FF04490968C1F394
:104230004231034A515CC84000BD000008380240CA
:104240008C6201082DE9F047002400250026A146D4
:104250002548006800F00C0020B1042805D008288B
:104260003AD105E0DFF8849039E0DFF8849036E059
:104270001D48001F006800F03F041B48001F006835
:1042800000F4800078B11A481749091F0968C1F382
:104290008811A0FB01700146224600233846FCF736
:1042A00041FB05460EE011480F49091F0968C1F39B
:1042B0008811A0FB01700146224600233846FCF716
:1042C00031FB05460848001F0068C0F30140401C50
:1042D0004600B5FBF6F902E0DFF8109000BF00BF22
:1042E0004846BDE8F0870000083802400024F4008A
:1042F00080969800F8B504460CB90120F8BD2078E6
:1043000000F00100002874D0F948006800F00C00AB
:1043100004280DD0F648006800F00C00082813D1DE
:10432000F348001F006800F48000B0F5800F0BD147
:10433000EF4808380068C0F34040002859D0606852
:10434000002856D10120D9E700BF6068B0F5803F52
:1043500008D1E7480838006840F48030E44908395B
:1043600008601EE06068B0F5A02F0DD1E048083865
:10437000006840F48020DE4908390860084600687B
:1043800040F4803008600CE0D9480838006820F418
:104390008030D749083908600846006820F480203A
:1043A000086000BF606890B1FDF7F0FF054606E0C9
:1043B000FDF7ECFF401B642801D903209EE7CC48A1
:1043C00008380068C0F340400028F1D011E0FDF744
:1043D000DDFF054606E0FDF7D9FF401B642801D943
:1043E00003208BE7C24808380068C0F3404000282B
:1043F000F1D1207800F0020002285FD1BC480068AB
:1044000000F00C0058B1BA48006800F00C00082811
:104410001CD1B748001F006800F48000B0B9B44850
:1044200008380068C0F3400020B1E068012801D0DE
:10443000012063E7AE480838006820F0F8002169E1
:1044400040EAC100AA490839086037E0E06800B3D3
:104450000120A8490860FDF799FF054606E0FDF731
:1044600095FF401B022801D9032047E7A0480838E0
:104470000068C0F340000028F1D09D48083800686B
:1044800020F0F800216940EAC10099490839086024
:1044900014E0002097490860FDF778FF054606E024
:1044A000FDF774FF401B022801D9032026E790483E
:1044B00008380068C0F340000028F1D1207800F0EF
:1044C000080008282CD16069A8B101208A49086039
:1044D000FDF75CFF054606E0FDF758FF401B02288C
:1044E00001D903200AE782486C300068C0F340001D
:1044F0000028F1D014E000207F490860FDF746FF56
:10450000054606E0FDF742FF401B022801D90320C3
:10451000F4E677486C300068C0F340000028F1D121
:10452000207800F00400042870D10027704838304B
:10453000006800F0805090B900BF002000906C48E7
:104540003830006840F080506949383108600846CA
:10455000006800F08050009000BF00BF012767484E
:10456000006800F48070B0B96448006840F480705E
:1045700062490860FDF70AFF054606E0FDF706FF01
:10458000401B022801D90320B8E65C48006800F40B
:1045900080700028F2D000BFA068012808D15448DC
:1045A0006830006840F001005149683108601DE042
:1045B000A06805280DD14E486830006840F004001E
:1045C0004B49683108600846006840F00100086007
:1045D0000CE047486830006820F001004449683129
:1045E00008600846006820F00400086000BFA0686A
:1045F000A8B1FDF7CBFE054609E0FDF7C7FE401B5D
:1046000041F28831884202D9032077E626E0384813
:1046100068300068C0F340000028EED013E0FDF7DA
:10462000B5FE054608E0FDF7B1FE401B41F28831BA
:10463000884201D9032061E62D4868300068C0F344
:1046400040000028EFD1012F07D1294838300068F9
:1046500020F0805026493831086000BFA06900284A
:1046600045D02348006800F00C0008285DD0A06900
:10467000022845D100201F490866FDF787FE054640
:1046800006E0FDF783FE401B022801D9032035E632
:10469000174808380068C0F340600028F1D1D4E919
:1046A00007010843616A40EA81110122A06AC2EB56
:1046B000500041EA00412C20005D41EA00600C49B5
:1046C000091F086001200B490866FDF75FFE0546DB
:1046D00006E0FDF75BFE401B022801D903200DE632
:1046E000034808380068C0F340600028F1D03FE07C
:1046F0000838024000004742800E474200700040E8
:1047000000201C490866FDF741FE054606E0FDF75E
:104710003DFE401B022801D90320EFE51648006842
:10472000C0F340600028F2D122E0A069012800D146
:10473000E4E511480830066806F48001E06981422A
:1047400014D106F03F01206A81420FD147F6C070B4
:104750003040616A884209D106F44031A06A814242
:1047600004D106F07061E06A814201D00120C5E504
:104770000020C3E5000047420038024070B50546FE
:104780000B4616460024286840680E4900EA0104DA
:10479000200CD870C4F30420587004F03F009870C7
:1047A000C4F3423018705EB9D87803F09DFBD8701E
:1047B000587803F099FB5870987803F095FB98703F
:1047C000002070BD3FFFFF0070B504460B46164643
:1047D00000252068806A586020680069C0F30E00D8
:1047E0009860206800680F4900EA0105C5F305409C
:1047F0001870C5F30620587005F07F00987005F416
:104800008000000CD8705EB9187803F06DFB18704A
:10481000587803F069FB5870987803F065FB98703E
:10482000002070BD7F7F7F0010B504460CB90120C9
:1048300010BD607F20B900202077204600F060F88E
:104840000220607700BFCA20216848625320216897
:10485000486200BF204603F05FFB40B100BFFF206D
:104860002168486200BF042060770120E0E72068EB
:10487000806822490840216888602169606808438F
:104880006169084321688968084321688860216854
:10489000E068086120680169208941EA00402168D8
:1048A00008612068C06820F080002168C860206826
:1048B000806800F0200060B9204600F045F940B162
:1048C00000BFFF202168486200BF042060770120FC
:1048D000AEE72068006C20F480202168086420681E
:1048E000006CA16908432168086400BFFF202168AB
:1048F000486200BF01206077002099E7BFFF8FFF6B
:10490000034A0168914202D10121024A11607047B5
:10491000002800403C0E47422DE9F04104460D4678
:104920001646002700BF207F012802D10220BDE8E3
:10493000F0810120207700BF022060774EB96878AF
:1049400000F01000102804D1687800F0EF000A3061
:10495000687086B9E87803F0D2FA0304687803F047
:10496000CEFA43EA0023A87803F0C9FA0343287873
:1049700043EA403709E0E8780004697840EA01201A
:10498000A9780843297840EA413700BFCA20216846
:10499000486253202168486200BF204603F0BCFAF9
:1049A00060B100BFFF202168486200BF042060772B
:1049B00000BF0020207700BF0120B8E7164838402C
:1049C000216848602068C06820F080002168C860C5
:1049D0002068806800F0200080B9204600F0B4F81C
:1049E00060B100BFFF202168486200BF04206077EB
:1049F00000BF0020207700BF012098E700BFFF2004
:104A00002168486200BF0120607700BF0020207746
:104A100000BF00BF8BE700003FFFFF002DE9F04122
:104A200004460D461646002700BF207F012802D10C
:104A30000220BDE8F0810120207700BF02206077CE
:104A4000CEB92068806800F0400000B102E000208C
:104A5000E87000BF287803F052FA0304687803F086
:104A60004EFA43EA0023A87803F049FA0343E878B2
:104A700043EA004712E02068806800F0400000B17F
:104A800002E00020E87000BF28780004697840EA5E
:104A90000120A9780843E97840EA014700BFCA200D
:104AA0002168486253202168486200BF204603F015
:104AB00033FA60B100BFFF202168486200BF0420C4
:104AC000607700BF0020207700BF0120B1E71D48BC
:104AD0003840216808602068806820F480202168C0
:104AE0008860D5E903010843216889680843216883
:104AF00088602068C06820F080002168C860206855
:104B0000806800F0200080B9204600F01DF860B1F8
:104B100000BFFF202168486200BF0420607700BF0B
:104B20000020207700BF012083E700BFFF2021681D
:104B3000486200BF0120607700BF0020207700BFDF
:104B400000BF76E77F7F7F0070B5044600252068B0
:104B5000C06820F0A0002168C860FDF717FC05467A
:104B600007E0FDF713FC401BB0F57A7F01D9032065
:104B700070BD2068C06800F020000028F1D000203F
:104B8000F6E700000349884203D1FF22024981F879
:104B90001C2270478CDA002038080020F8B5044643
:104BA0002068466820688568C5F3801048B905F01C
:104BB000010030B1C6F3801018B12046216C88473F
:104BC000F8BDC5F3400030B1C6F3C01018B120469F
:104BD000616C8847F4E7C5F3401030B9C5F3801025
:104BE00018B9C5F3002000287CD0C6F34010002877
:104BF0007DD0C5F38010F0B194F8510003280ED099
:104C0000606D40F00400606500BF002000902068E7
:104C1000C068009020688068009000BF0BE000BF73
:104C2000002000902068C068009020688068009094
:104C300000BF00BFC4E7C5F3401088B1606D40F00D
:104C40000100606500BF002000902068806800902F
:104C50002068006820F040002168086000BF00BFA5
:104C6000C5F3002058B1606D40F00800606500BFDA
:104C70000020009020688068009000BF00BF606D39
:104C800078B32068406820F0E00021684860012087
:104C900084F8510006F00200022802D006F001005C
:104CA00008B32068406820F0030021684860E06C89
:104CB00050B11048E16C0865E06CFDF76DF818B173
:104CC000606D40F040006065A06C50B10948A16C77
:104CD0000865A06CFDF760F818B1606D40F0400009
:104CE000606503E003E02046FFF74CFF68E700BF84
:104CF00066E70000957F000810B504460CB9012056
:104D000010BD606A00B900BF0021A16294F8510093
:104D100028B9002084F85000204600F033F8022023
:104D200084F851002068006820F040002168086085
:104D3000D4E901010843E168084321690843616936
:104D40000843218B01F400710843E1690843216A9B
:104D50000843A16A0843216808600421A06901EAA8
:104D60001040616A0843216848602068C06920F4E7
:104D700000602168C86100206065012084F851004E
:104D80000020BDE710B586B00446142101A8FBF74A
:104D900013FE3C492068884272D100BF0020009079
:104DA0003948006840F48040374908600846006888
:104DB00000F48040009000BF00BF00BF00200090C2
:104DC00031481038006840F002002F49103908605F
:104DD0000846006800F00200009000BF00BF4FF4DA
:104DE0006040019002200290002003900320049074
:104DF0000520059001A92548FDF7BAF92448254961
:104E0000086000204860002122488160C1604FF4A2
:104E100080610161002141618161C1610162416282
:104E2000FDF7F2F808B1FCF791FF00BF1948E06404
:104E3000846300BF16481830174908600020486096
:104E40004021154881600021C1604FF480610161FB
:104E5000002141618161C16101624162FDF7D4F8C5
:104E600008B1FCF773FF00BF0B48A064846300BF68
:104E7000002211462420FEF7DBF92420FEF7C8F9B2
:104E800006B010BD00380040403802400004024027
:104E900058600240E4DA002044DB00202DE9F84F9E
:104EA0000446884616461D464FF0000A00BF94F897
:104EB0005000012802D10220BDE8F88F012084F8BB
:104EC000500000BFFDF762FA0746B14694F8510062
:104ED000012802D04FF0020AA7E0B8F1000F00D07D
:104EE00016B94FF0010AA0E0032084F85100002019
:104EF0006065C4F83080A686E686A063A087E08758
:104F000060642064A068B0F5004F05D12068006897
:104F100040F48040216808602068006800F040008C
:104F2000402805D02068006840F0400021680860F3
:104F3000E068B0F5006F2FD1606810B1B9F1010FD2
:104F400009D1206B00882168C860206B801C206319
:104F5000E08E401EE0861BE02068806800F00200C2
:104F600002280AD1206B00882168C860206B801C51
:104F70002063E08E401EE0860AE0FDF707FAC01BC2
:104F8000A84201D3681C00B915B94FF0030A4CE0E0
:104F9000E08E0028E0D12EE0606810B1B9F1010F79
:104FA00009D1206B007821680873206B401C2063B6
:104FB000E08E401EE0861BE02068806800F0020062
:104FC00002280AD1206B007821680873206B401CEE
:104FD0002063E08E401EE0860AE0FDF7D7F9C01B93
:104FE000A84201D3681C00B915B94FF0030A1CE0B0
:104FF000E08E0028E0D13A462946204602F0D4FF50
:1050000008B120206065A06850B900BF0020009062
:105010002068C068009020688068009000BF00BFD2
:10502000606D08B14FF0010A00BF012084F8510003
:1050300000BF002084F8500000BF50463CE72DE937
:10504000FF5F0446884691461D460E9E0120029051
:105050000020019000BF94F85000012803D10220E5
:1050600004B0BDE8F09F012084F8500000BFFDF7B8
:105070008DF9074694F851B060680390AA46BBF1D9
:10508000010F0BD00398B0F5827F04D1A06810B94E
:10509000BBF1040F02D002200190DBE0B8F1000F59
:1050A00003D0B9F1000F00D015B901200190D1E073
:1050B00094F85100042802D0052084F85100002003
:1050C0006065C4F83890E587A587C4F83080E58628
:1050D000A586206460642068006800F040004028D5
:1050E00005D02068006840F0400021680860E06852
:1050F000B0F5006F4AD1606810B1BAF1010F09D163
:10510000206B00882168C860206B801C2063E08EC3
:10511000401EE08633E02068806800F0020002282C
:1051200010D1E08E70B1029801280BD1206B00885D
:105130002168C860206B801C2063E08E401EE086E2
:10514000002002902068806800F0010068B1E08FC4
:1051500058B12068C068A16B0880A06B801CA06358
:10516000E08F401EE08701200290FDF70FF9C01B81
:10517000B04204D3701C10B1032001906AE0E08EAD
:105180000028C8D1E08F0028C5D14AE0606810B17E
:10519000BAF1010F09D1206B007821680873206BE8
:1051A000401C2063E08E401EE08634E0206880686A
:1051B00000F00200022810D1E08E70B102980128A0
:1051C0000BD1206B007821680873206B401C206392
:1051D000E08E401EE086002002902068806800F08B
:1051E000010068B1E08F58B12068C068A16B0870F9
:1051F000A06B401CA063E08F401EE087012002905E
:10520000FDF7C4F8C01BB04201D3701C00B916B939
:10521000032001901EE0E08E0028C7D1E08F002817
:10522000C4D13A463146204602F0BEFE20B10120EC
:105230000190202060650DE0A06850B900BF0020FB
:1052400000902068C068009020688068009000BFCF
:1052500000BF00BF012084F8510000BF002084F887
:10526000500000BF0198FBE670B504462546681E55
:10527000B0F1807F01D301200FE0681E4FF0E021E4
:1052800048610F214FF0FF3005F004FC00204FF083
:10529000E021886107200861002070BD70477047D9
:1052A00030B502460B4600BF92F83C00012801D100
:1052B000022030BD012082F83C0000BF022082F8AD
:1052C0003D00106844681068816824F07004186814
:1052D000044310684460184D1068A8421BD0106841
:1052E000B0F1804F17D0154D1068A84213D0144D5F
:1052F0001068A8420FD0134D1068A8420BD0124D71
:105300001068A84207D0114D1068A84203D0104D74
:105310001068A84205D121F0800158680143106847
:105320008160012082F83D0000BF002082F83C002F
:1053300000BF00BFBDE700000000014000040040C6
:1053400000080040000C0040000401400040014003
:105350000018004010B504460CB9012010BD94F8A7
:105360003D0028B9002084F83C00204600F00CF8ED
:10537000022084F83D00211D206802F03DFF01203D
:1053800084F83D000020E9E738B504462068B0F114
:10539000804F18D100BF002000903648006840F0D0
:1053A0000100344908600846006800F001000090E0
:1053B00000BF00BF002211461C20FDF739FF1C2052
:1053C000FDF726FF55E02C492068884218D100BF20
:1053D000002000902748006840F00200254908603E
:1053E0000846006800F00200009000BF00BF0022E5
:1053F00011461D20FDF71CFF1D20FDF709FF38E0B9
:105400001E492068884218D100BF0020009019482A
:10541000006840F00800174908600846006800F07E
:105420000800009000BF00BF002211463220FDF7A7
:10543000FFFE3220FDF7ECFE1BE011492068884298
:1054400017D100BF002000900A48006840F010000B
:10545000084908600846006800F01000009000BF8E
:1054600000BF002211463620FDF7E2FE3620FDF790
:10547000CFFE38BD4038024000040040000C004020
:105480000010004001460868C06840F001000B6849
:10549000D8600868806800F00702062A05D008680E
:1054A000006840F001000B6818600020704701465A
:1054B0000868C06820F001000A68D06000BF086872
:1054C000006A41F21112104050B90868006A921047
:1054D000104028B90868006820F001000A681060D0
:1054E00000BF002070472DE9F04104460D4600BF83
:1054F00094F83C00012802D10220BDE8F08101208F
:1055000084F83C0000BF022084F83D0020688668D3
:1055100026F0770626F47F462068866028685028A3
:1055200033D00CDC202850D004DC00284BD01028CD
:1055300051D149E0302849D040284CD139E0602889
:105540002DD0702807D0B0F5805F03D0B0F5005F94
:1055500041D10DE040E0D5E902136A68206802F00D
:10556000B7FE2068866846F077062068866033E0DC
:10557000D5E902136A68206802F0AAFE20688068F4
:1055800040F480402168886026E0EA686968206805
:1055900002F0B2FE5021206802F0A5FE1CE0EA688D
:1055A0006968206802F0BBFE6021206802F09BFE63
:1055B00012E0EA686968206802F09EFE40212068D7
:1055C00002F091FE08E000BF00BF00BF296820681C
:1055D00002F089FE00E000BF00BF012084F83D001A
:1055E00000BF002084F83C0000BF00BF85E7704783
:1055F00010B5044620680069C0F34000D8B12068A7
:10560000C068C0F34000B0B16FF0020021680861CB
:10561000012020772068806900F0030018B120463F
:10562000FFF7E5FF05E0204600F0ADF8204600F06A
:10563000D2F80020207720680069C0F38000D8B13C
:105640002068C068C0F38000B0B16FF0040021682A
:105650000861022020772068806900F4407018B14A
:105660002046FFF7C4FF05E0204600F08CF82046F6
:1056700000F0B1F80020207720680069C0F3C00076
:10568000D8B12068C068C0F3C000B0B16FF00800A6
:1056900021680861042020772068C06900F00300B9
:1056A00018B12046FFF7A3FF05E0204600F06BF895
:1056B000204600F090F80020207720680069C0F3B1
:1056C0000010D8B12068C068C0F30010B0B16FF00E
:1056D000100021680861082020772068C06900F464
:1056E000407018B12046FFF782FF05E0204600F029
:1056F0004AF8204600F06FF8002020772068006903
:1057000000F0010058B12068C06800F0010030B11D
:105710006FF0010021680861204600F05DF8206804
:105720000069C0F3C01058B12068C068C0F3C01051
:1057300030B16FF08000216808612046FFF7AEFDB0
:1057400020680069C0F3801058B12068C068C0F3B9
:10575000801030B16FF0400021680861204600F0F1
:1057600081F820680069C0F3401058B12068C06813
:10577000C0F3401030B16FF020002168086120466E
:10578000FFF78DFD10BD704770B504460D460CB98E
:10579000012070BD94F83D0028B9002084F83C0039
:1057A000204600F017F8022084F83D00211D2068F3
:1057B00002F022FD2068006820F0080021680860DF
:1057C00020680068284321680860012084F83D00B3
:1057D0000020DEE77047704710B504461648844243
:1057E00018D116480078401C144908700846007803
:1057F000022804DB002008700120114908700521EF
:10580000104809F0F7FD05210F4809F0F3FD0520C8
:105810000E4908700E48844207D10E480068401CAB
:105820000C49086001200C4908700C48844202D1E0
:1058300001200B49087010BD64DC00200603002025
:105840000303002078D6002098D60020040300200F
:10585000A4DB00203808002005030020E4DB002042
:10586000020300207047704710B504462068C068E6
:1058700020F490702168C8602068406920F0010021
:10588000216848612068406900F0400040281BD131
:105890002068406920F0400021684861606B50B189
:1058A0000E48616B0865606BFCF776FAA0B1606B1F
:1058B000016D884710E00020E085202084F83A0040
:1058C0002046FFF7D0FF07E00020E085202084F885
:1058D0003A002046FFF7C7FF002010BD6D83000887
:1058E00010B504460648844202D106480EF087FDF2
:1058F0000348844202D104480DF00BFC10BD0000A7
:10590000A4DD0020E2800020CC7C00200146C86B92
:10591000704700002DE9F0470446206805682068BC
:10592000C668206847694FF00008C14605F00F08B7
:10593000B8F1000F0AD105F0200038B106F02000C0
:1059400020B1204602F03EFDBDE8F087B8F1000F1F
:1059500072D007F0010018B906F4907000286BD0DF
:1059600005F0010030B106F4807018B1E06B40F032
:105970000100E06305F0040030B107F0010018B148
:10598000E06B40F00200E06305F0020030B107F088
:10599000010018B1E06B40F00400E06305F008007E
:1059A00048B106F0200010B907F0010018B1E06B13
:1059B00040F00800E063E06B70B305F0200028B110
:1059C00006F0200010B1204602F0FCFC206840697F
:1059D000C0F38019E06B00F0080010B9B9F1000FB6
:1059E00023D0204602F0CEFC2068406900F0400041
:1059F000402816D12068406920F0400021684861A5
:105A0000606B50B11748616B0865606BFCF7C4F9B7
:105A100010B1606B016D88470CE02046FFF760FF16
:105A200008E02046FFF75CFF04E02046FFF758FF40
:105A30000020E06388E7FFE705F0800030B106F062
:105A4000800018B1204602F005FF7DE705F0400018
:105A500030B106F0400018B1204602F0A3FC73E715
:105A600000BF71E75983000810B504460CB9012046
:105A700010BDA06900B100E000BF94F8390028B95A
:105A8000002084F83800204600F028F8242084F80C
:105A900039002068C06820F400502168C8602046A2
:105AA00002F0E4FC2068006920F49040216808615D
:105AB0002068406920F02A00216848612068C06899
:105AC00040F400502168C8600020E063202084F882
:105AD000390084F83A000020CAE7000010B586B00B
