:020000040800F2
:10000000C0290020A50200083D7B0008D36000083D
:10001000397B00087521000861A900080000000074
:100020000000000000000000000000007D7E0008CD
:100030000323000800000000E77D0008917E00080F
:10004000BF020008BF020008BF020008BF0200088C
:10005000BF020008BF020008BF020008BF0200087C
:10006000BF020008BF020008BF020008BF0200086C
:10007000BF020008BF020008052200081522000880
:10008000BF020008BF020008BF020008BF0200084C
:10009000BF020008BF020008BF02000805230008D5
:1000A000BF020008BF020008BF020008BF0200082C
:1000B000697F0008797F0008BF020008BF020008BE
:1000C000BF020008E9600008D9600008BF0200080C
:1000D000597E000891850008A1850008B1850008B7
:1000E000BF020008BF020008BF020008BF020008EC
:1000F000BF020008BF020008BF020008BF020008DC
:10010000BF020008BF020008897F0008BF02000884
:10011000F9800008BF020008997F0008BF020008AC
:10012000BF020008BF020008BF020008BF020008AB
:10013000BF0200080000000000000000BF0200082D
:10014000BF020008BF020008BF020008417B000890
:10015000BF020008BF020008BF020008C1850008F6
:1001600009610008F9600008BF020008BF0200082A
:10017000BF020008BF0200080000000000000000ED
:10018000BF020008BF02000800F002F800F07AF891
:100190000AA090E8000C82448344AAF10107DA45E2
:1001A00001D100F06FF8AFF2090EBAE80F0013F0BA
:1001B000010F18BFFB1A43F001031847ACC200003F
:1001C000CCC200000A444FF0000C10F8013B13F0C1
:1001D000070408BF10F8014B1D1108BF10F8015BA0
:1001E000641E05D010F8016B641E01F8016BF9D193
:1001F00013F0080F1EBF10F8014BAD1C0C1B09D1EA
:100200006D1E58BF01F801CBFAD505E014F8016B5B
:1002100001F8016B6D1EF9D59142D6D370470000ED
:100220000023002400250026103A28BF78C1FBD8FF
:10023000520728BF30C148BF0B60704766290BF0DA
:100240008E87642900F02281782900F05B81632980
:1002500000F0C185002070471FB50BF07BFF9DE8C3
:10026000030001F0B1F900F0D5FD040000200021E9
:100270000BF026FBE06000F0E5FE1FBD10B500F0BE
:100280004AFF10BD00F07EFF1146FFF7E5FF0AF0C0
:1002900029FF01F06DF903B4FFF7F0FF03BC01F093
:1002A00005FB00000948804709480047FEE7FEE7D4
:1002B000FEE7FEE7FEE7FEE7FEE7FEE7FEE7FEE716
:1002C00004480549054A064B704700004D7F000869
:1002D00089010008C01D0020C0290020C021002085
:1002E000C021002053EA020C00F069802DE9F04B98
:1002F0004FF00006002B1FBFB3FA83F503FA05F495
:1003000024FA05F65E4012BF1643B2FA82F502FAED
:1003100005F4C5F120051EBF22FA05FC44EA0C04D1
:10032000203556EA044C4FEA144418BF641C4FF0C1
:1003300000084FF00009904271EB030C39D30029FB
:1003400019BFB1FA81F701FA07F6B0FA80F700FA9F
:1003500007F6C7F120071EBF20FA07FC46EA0C0685
:100360002037B6FBF4FCA7EB0507103F07F01F0B87
:10037000CBF120060CFA0BFB2CFA06F644BFB34671
:100380000026202FA4BF5E464FF0000B5BEA060C50
:1003900008BF4FF0010B19EB0B09ABFB027C48EBDC
:1003A0000608C01B06FB02CC0BFB03CC71EB0C0157
:1003B000C1E70B46024641464846BDE8F08B13B5FF
:1003C0004FF000004FF00001AFF30080BDE81C408B
:1003D000704700000FB4044910B503AA029800F05A
:1003E00007FD10BC5DF814FBB41C002070B504467A
:1003F00085690068C10601D5302600E02026C007C7
:1004000007D070BDD4E9012130469047206A401CD6
:1004100020626D1EF6D570BD70B504468569007802
:10042000C00707D170BDD4E9012120209047206A80
:10043000401C20626D1EF6D570BD70B50C46054699
:10044000012A05D02878800600D5EA69002302E059
:10045000012305E05B1C934202D2E05C0028F9D145
:10046000A869E618C01AA861286A184428622846B4
:10047000FFF7BCFF04E0D5E9012114F8010B904718
:10048000B442F8D32846FFF7C7FF70BD2DE9F0410D
:100490000646002410687529314616A510D0AFF322
:1004A0000080002802DA404213A507E031688A077D
:1004B00001D512A502E0490704D511A5012401E0E8
:1004C000AFF3008000210A2206F1240709E0B0FB07
:1004D000F2FCB0FBF2F302FB1C00303078541846FB
:1004E000491C0028F3D123462A463046BDE8F04196
:1004F00000F0FFB9000000002D0000002B000000FC
:100500002000000070B504460D4621461068AFF388
:1005100000802188090502D50F4A7A4402E00E4A7C
:100520007A440E32002104F1240305E000F00F06A6
:100530000009965D5E54491C0028F7D120780023FD
:10054000000704D5702D02D009B1022311322046D4
:10055000BDE8704000F0CDB97BBE00002DE9F05F32
:10056000894604464FF0000ADFF824B1FB44C0F886
:1005700020A02046E168884700287DD0252806D0A5
:10058000D4E901219047206A401C2062F1E7002550
:100590005F462046E16888472028064607DB312E63
:1005A00005D2B81910F8200C08B10543F1E7A807E7
:1005B00001D525F00405C4F81CA00027C4F818A034
:1005C0002A2E09D030460AF017FA38B304EB870810
:1005D000303EC8F8186019E059F8041B204604EBB7
:1005E00087029161E1688847012F064618D1E069CA
:1005F000002820DA25F020051DE0D8F8180000EBCF
:10060000800006EB40003038C8F818002046E1684A
:10061000884706460AF0F0F90028EED1012F0AD0EB
:100620002E2E08D12046E16888477F1C0646022FFF
:1006300045F02005C4DBA069002803DA404245F0FC
:100640000105A061E80701D025F01005A6B1A6F1CB
:100650004100192802D8203645F400654A46314643
:10066000204625604D46FFF7E9FD60B1012807D01F
:10067000ED1D25F0070000E007E000F1080978E72C
:1006800005F1040975E730467AE7206ABDE8F09F76
:1006900051BE000040EA010310B59B070FD1042AA8
:1006A0000DD310C808C9121F9C42F8D020BA19BA3D
:1006B000884201D9012010BD4FF0FF3010BD1AB1A2
:1006C000D30703D0521C07E0002010BD10F8013BF7
:1006D00011F8014B1B1B07D110F8013B11F8014B1E
:1006E0001B1B01D1921EF1D1184610BD032A40F206
:1006F000308010F0030C00F0158011F8013BBCF1C4
:10070000020F624498BF11F801CB00F8013B38BFDB
:1007100011F8013BA2F1040298BF00F801CB38BFE9
:1007200000F8013B11F0030300F02580083AC0F007
:10073000088051F8043B083A51F804CBA0E80810AF
:10074000F5E7121D5CBF51F8043B40F8043BAFF3E2
:100750000080D20724BF11F8013B11F801CB48BF3C
:1007600011F8012B24BF00F8013B00F801CB48BF72
:1007700000F8012B704710B5203AC0F00B80B1E8AB
:100780001850203AA0E81850B1E81850A0E81850C6
:10079000BFF4F5AF5FEA027C24BFB1E81850A0E8CF
:1007A000185044BF18C918C0BDE810405FEA827CE9
:1007B00024BF51F8043B40F8043B08BF7047D20700
:1007C00028BF31F8023B48BF11F8012B28BF20F8A1
:1007D000023B48BF00F8012B70474FF0000204298C
:1007E000C0F0128010F0030C00F01B80CCF1040C60
:1007F000BCF1020F18BF00F8012BA8BF20F8022B94
:10080000A1EB0C0100F00DB85FEAC17C24BF00F839
:10081000012B00F8012B48BF00F8012B70474FF067
:10082000000200B5134694469646203922BFA0E840
:100830000C50A0E80C50B1F12001BFF4F7AF09074C
:1008400028BFA0E80C5048BF0CC05DF804EB89003D
:1008500028BF40F8042B08BF704748BF20F8022B80
:1008600011F0804F18BF00F8012B70474FF0013C8A
:1008700050F8042B51F8043B9A4221D1A2EB0C030F
:10088000934313EACC1317D150F8042B51F8043BCF
:100890009A4215D1A2EB0C03934313EACC130BD16C
:1008A00050F8042B51F8043B9A4209D1A2EB0C03F7
:1008B000934313EACC13DBD04FF00000704700BF26
:1008C000D01A01BAB1FA81F101F0180122FA01F04F
:1008D000CB40C1F12001DBB2C0B2C01A2CFA01F347
:1008E000D11A914311EAC311E6D17047704770479E
:1008F00070472DE9F0470D4699469246044600F1AF
:1009000024080168880604D5E06921F010012160FF
:1009100000E00120A84201DD471B00E00027A1699B
:100920007A1902EB0900081AA0612078C00602D4E7
:100930002046FFF75BFD002608E0D4E901211AF804
:1009400006009047206A401C761C20624E45F4DB6E
:100950002078C0060AD52046FFF748FD06E0D4E916
:10096000012130209047206A401C2062381EA7F1E8
:100970000107F4DC07E0D4E9012118F805009047ED
:10098000206A401C2062281EA5F10105F3DC2046E8
:10099000FFF742FD2078000602D50220BDE8F0876F
:1009A0000120FBE770472DE9FF4F0C461E464FF034
:1009B000FF378BB0D2E90001DDF860800A908A46EB
:1009C000C1F30A5505B93D46002108464FF0000025
:1009D000BAF1000F00F4400005DA00EB80004FF49C
:1009E000400101EA50004FEA9059B9F1010F00DDD2
:1009F000B9460A9850EA4A000ED044F61050A5F2C3
:100A0000FF3545432F14B8F1000F1ED07542291E43
:100A10001EDDC9F100021CE0B8F1010F4FF000002B
:100A200001D0302103E0F24305E02154401CB042E4
:100A3000FBDB30460022002121540B99C1F80880CD
:100A4000C1E900200FB0BDE8F08FBD1B6D1CDEE7D3
:100A50004A4600DA694206A800F07EFA06AB93E83F
:100A6000070003AB83E8070050460A9900F0BAFF7D
:100A70008DE80700A0F500501F3800900398002D66
:100A80000ADD42F21F014A460844002303A90390ED
:100A9000684601F023FA09E0A0F500504A461F38E5
:100AA000002303A90390684601F02DFA8DE80700A2
:100AB0000004000C03D04FF0FF30410800E0104666
:100AC000B8F1000F03D00022009215461EE0751EFB
:100AD00005D400F0A3F9303262556D1EF9D5B34646
:100AE0000122084302D000227F1C04E02078302835
:100AF00001D100227F1E002A099784D01DE0112D0C
:100B000007DA00F08BF9303262556D1C50EA0102B1
:100B1000F5D1084302D00098C8B10EE00021681E4C
:100B200005E0235C625C63542254401E491C8142F0
:100B3000F7DBAB46A81B401E0990002004F80B0011
:100B40000B98099AC0F80880C0E9002B7AE71126B3
:100B50004FF0000857E72DE9F04F88460446D21DB4
:100B600022F0070191B0D1E90001CDE90A0109F0B5
:100B7000F9FE02460B98C00F01D02D2007E0206837
:100B8000810701D52B2002E0202101EAC000032AC1
:100B9000099001D0072A05DB03464146204600F0B4
:100BA0009BF90BE12078800601D5E06900E0062082
:100BB000B8F1650F814606D0B8F1660F18D0B8F1CC
:100BC000670F70D131E00020B9F1110F009001DB07
:100BD000112301E009F101030AAA01A90CA8FFF7FA
:100BE000E2FEDDE90C70002609F10105834647E0CD
:100BF00001204B4600904FF000470AAA01A90CA81B
:100C0000FFF7D1FEDDE90DB00C995D46002610B965
:100C100009F101000D18B9EB050003D4C0F1FF364E
:100C200009F10105A5EB09002BE0B9F1010F01DA8B
:100C30004FF001090020B9F1110F0090484601DD85
:100C4000112300E003460AAA01A90CA8FFF7ABFE96
:100C5000DDE90C704D4600268346207800070AD453
:100C6000AB4500DA5D4601A8012D04DD411911F8FC
:100C7000011C302907D04F4502DA17F1040F04DABE
:100C8000012082460FE06D1EEEE7002F02DCED1B17
:100C90003E4403E0781CA84200DD7D1CB81B00F137
:100CA000010A4FF000472078000703D4AA4501DB72
:100CB0004FF0FF3A0021B7F1004F0DF143088DF8D6
:100CC000431024D002202B23002F01DA7F422D2352
:100CD0000A21021EA0F1010000DC5FB197FBF1FCCC
:100CE00097FBF1F201FB1C7C17460CF1300C08F865
:100CF00001CDEEE7A8F1010003702188090501D5B7
:100D0000452100E06521A0F1010800F8011C0998C7
:100D10000FA9A1EB0807FF1D00B10120411901EB4C
:100D2000EA70A1693844081A401EA0612078C00604
:100D300002D42046FFF75AFB099828B1D4E90121D3
:100D40009047206A401C20622078C00622D52046A9
:100D5000FFF74CFB1EE0002E04DBB34502DD01A8CB
:100D6000805D00E03020D4E901219047206A401CDA
:100D70002062761CAAF101005FEA000A0AD100F0A5
:100D800049F8C0680168405CD4E901219047206AB5
:100D9000401C2062281EA5F10105DCDC07E0D4E937
:100DA000012118F8010B9047206A401C2062381E70
:100DB000A7F10107F3DC2046FFF72EFB032011B05B
:100DC00041E610B5436913B1AFF3008001E0FFF7CE
:100DD00034FB012010BD127800F124010A700022BA
:100DE0004A700122EDE711684FF0FF32E9E7000099
:100DF000074B70B50D467B4400F05BF8044628466F
:100E000000F01CF910B14FF0FF3070BD204670BDEE
:100E10002B9F0000004870477C1D002030B5B0F1CA
:100E20000A024FEA900E71F100034EEA817EB0EBA8
:100E30000E0061EB91014FEA101E4EEA017E10EBAD
:100E40000E0041EB11114FEA102E4EEA016E10EB2D
:100E50000E0041EB11214FEA104E4EEA014E10EB0D
:100E60000E0041EB1141401841F100014FEAD00062
:100E700040EA41704FEAD10110EB80054FEA81044E
:100E800044EA907444EB01046D1944EB0404521BD2
:100E9000A3414FF0000348BF0A3200D530BD401CCB
:100EA00041F1000130BD000001694A1C026108786F
:100EB000704700B58FB0CDE901310021059105499A
:100EC0007944CDE9031011466846FFF747FB0FB0A0
:100ED00000BD0000E5FFFFFF2DE9F0411F4604467D
:100EE00003260168072A01F4006004DB08B116A597
:100EF00005E016A503E008B115A500E015A521F051
:100F000010002060A069C01EA0610FB1401EA0614A
:100F10002046FFF76BFA4FB1D4E9012138469047DC
:100F2000206A401C2062C01C206206E0206AFAE7AA
:100F3000D4E9012115F8010B9047761EF8D220461E
:100F4000FFF76AFABDE8F0814E414E006E616E0017
:100F5000494E4600696E66002DE9F0478146164607
:100F60008AB0354878440DC88DE80D003248784481
:100F7000801C03AC0DC884E80D0041F69B3008448A
:100F8000372190FBF1F290FBF1F5A5F1800501FB13
:100F900012041B3C02D56442012000E00020DFF86F
:100FA00098A080460027FA44AAF1BE0A0EE0E007A6
:100FB0000AD03246684607EB470101230AEB81015C
:100FC00000F0A1FF8DE8070064107F1C002CEED11B
:100FD000194F7F44AE3F19E0E80715D007EB041026
:100FE0000DF1180A90E80E008AE80E00C068F04281
:100FF00001D1981908903246012306A903A800F0F0
:1010000082FF03AB83E807006D10641C002DE3D161
:101010004FF0010332466946B8F1000F03A802D031
:1010200000F05CFF01E000F06EFFC9E90001C9F8C3
:1010300008200AB0BDE8F087E8B40000007B00F0AB
:101040008000704710B542485421FFF7E8FB414843
:101050005421FFF7E4FB40485421FFF7E0FB3F49F0
:101060003B483C4A3F4B08603D490A603A49196099
:10107000531C0365481C1065012008653B48344A31
:1010800039A1784400F0D8F920B9384878440A38B2
:1010900000F077FA37482F4A35A1784400F0CCF9B0
:1010A00020B9344878440A3800F06BFA32482A4AAA
:1010B0002FA1784400F0C0F920B92F4878440A38AD
:1010C00000F05FFA40232248DC000021224600F0B5
:1010D00090F920B125487844543800F052FA1D4860
:1010E00022464023002100F084F920B121487844B1
:1010F000543800F046FA184822461023002100F028
:1011000078F9002806D01C487844BDE810405638CD
:1011100000F037BA10BD104870B5006D20F0010422
:101120000B4800F0FFF90B4800F0FCF90A4800F00A
:10113000F9F909E0206D20F00105204600F0F2F9F0
:10114000204600F044F82C46002CF3D170BD00007E
:10115000601C0020B41C0020081D00209801002005
:101160009C010020A001002072000000FCB20000E1
:1011700077000000EBB20000DBB2000000487047CF
:101180005C1D00207546FFF7F9FFAE460500694675
:10119000534620F00700854618B020B5FFF790F8B9
:1011A000BDE820404FF000064FF000074FF0000868
:1011B0004FF0000B21F00701AC46ACE8C009ACE8E9
:1011C000C009ACE8C009ACE8C0098D46704770B5ED
:1011D0000446051F00F0DCF90068002C14BF4468C9
:1011E00070BD002C18BFAC423CBF20466468F8D3E9
:1011F00001680A18AA4218BF456003D12A6805464B
:101200001144016028684119A1421CBF6C6070BD87
:101210006168696021680844286070BD2DE9F04765
:1012200005460C46C86820F4201040F48000C860D1
:10123000800602D5084600F0F8FAE06841F2820123
:101240004FF0FF390140022903D0204600F096FA02
:10125000B5E000F42041B1F5004F0FD1C00306D531
:101260006168E06A884200D80846606006E020694C
:10127000E0626060606909F0D9FBA061A0680022AB
:10128000EEB200280DDAE1688B050AD4C043A060F5
:1012900041F490302260E0606068411C616006703B
:1012A000A5E0E0689046226040F40050E0602069CC
:1012B00068BB606909F0CCFB012704F12405A0B1EB
:1012C000A08910F4407F08D0E06900F0ACF92061FB
:1012D00018B1E06840F4006016E0E7612561E0685D
:1012E00020F4407040F480600EE0E06900F09BF96B
:1012F00000282061F1D0E06840F4006010F4407FE5
:10130000E06002D140F48070E06020696060E068D5
:1013100025696FF0010AC1051FD56168E06A88423E
:1013200000D80846411B04D02246284600F030FA77
:10133000F0BBE068010203D5E562C4E9015854E05E
:10134000691CE1626160E16940F48030491EC4E9D2
:10135000021030462E70BDE8F087010202D500F47D
:1013600080320AE06068411C61600670E0680A2E05
:1013700040F48030E06006D00022E16A606881427B
:1013800003D90B4602E00122F7E70346A7895B1B5E
:101390007F0503D4E7699F4200DDE2B1814200D8B6
:1013A0000146E5620F1AC4E90158002B09DD00E08F
:1013B00005E022461946284600F0EAF908B14846F9
:1013C000C9E747B1A069E5626560C01BA061E0683C
:1013D00040F01000E060E068000208D56168A06994
:1013E000E562491B08446560A0615046B3E730469A
:1013F000B1E770B5C468A50713D0650211D4B2F582
:10140000807F09D0B2F5007F06D0B2F5806F08D199
:10141000012300F1240106E05D1E6FF07F46B54216
:1014200001D3012070BD0161C361416024F470618A
:101430001143C160002070BD2DE9F0410C46074604
:101440001646104600F06EF82078611C61280AD01C
:10145000722802D077283CD102E00125002405E063
:101460000225042402E0082448F2020511F8010BC9
:101470002B2806D0622809D011F8010C74280AD054
:101480000BE045F0030544F00204EFE745F00405E6
:1014900044F00104EAE744F010043846214609F01C
:1014A000E9FA411C15D00021316171604FF40071DF
:1014B000F560F1617061200704D5304602220021F9
:1014C00000F0E0F8306D40F0010030653046BDE8D6
:1014D000F0810020FBE72DE9F0410D460646104C57
:1014E000206DC10704D0410804D020F00104F7E7C3
:1014F00022460EE0542000F096F807000ED0206D32
:1015000047F001010843542120653846FFF787F969
:101510003A4629463046BDE8F0418DE70020D6E73F
:10152000601C00202DE9F04704464FF000094FF001
:10153000FF37C568D4E90486A80707D0204600F025
:1015400051F9304609F05FFA002802DA3846BDE862
:10155000F087280502D54046FFF739FE4C2120468A
:10156000FFF75DF9206D20F0010020654846EEE7A9
:1015700010B50446AFF300802046BDE81040FEF7EA
:101580008ABE10B500F078F9BDE8104000F06EB9E1
:1015900000487047641D00207047704770477047CF
:1015A00038B504460A4600206946AFF3008000289B
:1015B00008BF38BD02460099204600F084F901209A
:1015C00038BD012000F0D3B9F8B5AFF3008005466F
:1015D00000200C46102000BF0646A819A0420DD9D5
:1015E000324669460020AFF30080070008BF00F0D4
:1015F000BEF90098A04218BF0546C419FFF7C8FFFE
:1016000005600746F01D20F007004619284600F047
:1016100053F9B44208BFF8BDA21B31463868BDE893
:10162000F84000F050B970B50646FFF7B1FF056805
:1016300006F10B0020F00704B4429CBF002070BDEF
:101640002B466A68BAB11068A04210D304F10801B1
:1016500088423CBF5068586007D3516810194160F8
:101660001168091B016058601460101D70BD13469D
:101670005268002AE7D121462846FFF791FF00284B
:10168000DED170BD2DE9F041044616460D4647698E
:10169000007B80072ED0384609F0DAF950BB3EB304
:1016A000012E02D0022E25D104E0204600F025F9BB
:1016B00005441DE0384609F0B9F9E168002841F019
:1016C0001001E16005DA204600F058F80120BDE87D
:1016D000F081C9030BD56268E16A914200D81146D6
:1016E000A26911442269891A814200DD0846054435
:1016F000002D01DA0220EAE7E16A6068E2688142CF
:1017000006D29103E06203D522F4003141F01002C9
:10171000A6690027AE4213DCE16A814201D90B467B
:1017200000E0034603EB060C2369ACEB030CAC456D
:1017300006DD814201D98C4600E084469C4505D1F6
:10174000A760276042F02000A5620DE0AD1BE669AE
:10175000AE1B8142A66000D90846C01A281A206034
:101760005819606022F0200003490840E060002022
:1017700084F84870ABE70000BFCFD7FFC16821F401
:10178000001141F08001C16000218160016070475B
:101790002DE9F047814614460E464FF0FF38324897
:1017A000D5685769054209D03846A16909F096F90C
:1017B000002811DB2C48C0430540E5602B4632462B
:1017C0004946384609F0A0F9A16920F00042B21A52
:1017D00011440028A16103D02046FFF7CFFF404607
:1017E000BDE8F08770B504460569C06A6168884243
:1017F00000D80846E16821F42011E160C90312D540
:10180000A84208D02246411B2846FFF7C1FF10B16D
:101810004FF0FF3070BD0020E562C4E90150E06880
:1018200020F48030E060002070BD10B50446C06830
:1018300020F02000E060A16AA06988420DD0204617
:10184000FFF7D0FFE06820F4405040F01000E06067
:10185000A06AA0612069E062606044F24001E06833
:101860008843E06010BD000010000200002801D095
:1018700000F01CB87047000010B5014602A000F04F
:101880005DF8012010BD00005349475254524544B1
:101890003A2052656469726563743A2063616E2709
:1018A00074206F70656E3A20000000000149182016
:1018B000ABBEFEE72600020000210160C0E9011076
:1018C000704710207047034640688C46002818BFB8
:1018D00088423CBF03464068F8D3186818448842E1
:1018E00007D00CF1030020F00700001D411A521A26
:1018F0000146081D0A60FFF76ABC10B50146C268C0
:10190000900703D0900607D5886A0AE000F03EF8F9
:1019100001210160881E10BD8B69486818440B695D
:10192000C01A91F848301BB191F84910401A10BD07
:101930001103FCD50028FADD401E10BD70B5054628
:101940000C460A2000E06D1C00F018F835B128782C
:101950000028F8D102E0641C00F010F814B12078DF
:101960000028F8D1BDE870400A2000F007B810B593
:1019700000F010F8BDE81040FFF778BF08B56946E1
:101980008DF800000320ABBE08BD704700487047CB
:101990005C1D002010B5012805D0002103A0FFF731
:1019A000CDFF012010BD09A1F8E7000053494752BF
:1019B000544D454D3A204F7574206F66206865611F
:1019C00070206D656D6F7279000000003A204865E7
:1019D0006170206D656D6F727920636F72727570C2
:1019E000746564005FEA400C08BF91F0000F4FEA95
:1019F0008C234FEAC12243EA51514FEA1C5018BFD1
:101A000000F5F0404FEA300018BF41F000415FEAB6
:101A10006C5C00F02980BCF1FF3F08BF40F08040C3
:101A20007047130C06BF12044FF0100C4FF0000C5F
:101A3000130E04BF12020CF1080C130F04BF1201A5
:101A40000CF1040C930F04BF92000CF1020CD30FA5
:101A500004BF52000CF1010C11464FF00002A0F13E
:101A60001F00A0EB0C00704711F0004F08BF70473B
:101A700031F000413FF4D5AF0B0C06BF09044FF025
:101A8000100C4FF0000C0B0E04BF09020CF1080CF7
:101A90000B0F04BF09010CF1040C8B0F04BF89006C
:101AA0000CF1020CCB0F04BF49000CF1010CCCF17E
:101AB0002003A0EB0C0022FA03F302FA0CF241EA35
:101AC000030100F10100704720F07F4C80EA030021
:101AD00023F07F47ACEB070303F57C5300F0004095
:101AE00003F1FF032DE980494FEA154B09B44FEA92
:101AF000144325EA0B4E24EA03480FF2042606EBB2
:101B0000132749083E785FEA320203FB0667C7F5F0
:101B1000000707FB06F64FEA54374FEAD64606F1B0
:101B2000020607FB066CCCF1005C4FEA1C472CEA6E
:101B3000074C07FB06F40CFB06F504EB15464FEAD1
:101B4000961634BF00204FF000404FEAD13706FB15
:101B500007FC4FEA1C4C0CFB0BF7D21B03FB0CF7EA
:101B600061EB07010CFB0EF7B0EB074072EB17427D
:101B70000CFB08F734BFA2EB0742B2EB074261EB64
:101B800017414FEA0C444FEA910706FB07FC4FEA66
:101B90001C4C0CFB0BF7B0EBC74072EB573203FB4E
:101BA0000CF734BFA2EBC742B2EBC74261EB57312F
:101BB0000CFB0EF7B0EBC70072EB57720CFB08F78B
:101BC00034BFA2EBC702B2EBC70261EB5771039FB0
:101BD0004FEA816141EA921104EBCC044FEAD1371C
:101BE0004FEA826206FB07FC42EA90124FEA8060ED
:101BF0004FEA1C4C0CFB0BF7D21B03FB0CF761EB01
:101C000007010CFB0EF7B0EB074072EB17420CFB21
:101C100008F734BFA2EB0742B2EB074261EB174172
:101C20004FEA8C554FEA910704EB9C2406FB07FC16
:101C30004FEA1C4C0CFB0BF7B0EBC74072EB573272
:101C400003FB0CF734BFA2EBC742B2EBC74261EB18
:101C500057310CFB0EF7B0EBC70072EB57720CFB61
:101C600008F734BFA2EBC702B2EBC70261EB5771B2
:101C700015EB4C254FEA816141EA92114FEA8262ED
:101C80004FEAD13742EA901206FB07FC44F1000408
:101C90004FEA80604FEA1C4C0CFB0BF7D21B03FB96
:101CA0000CF761EB07010CFB0EF7B0EB074072EB92
:101CB00017420CFB08F734BFA2EB0742B2EB074216
:101CC00061EB174115EB1C154FEA813141EA924156
:101CD0004FEA823242EA90424FEA80304FEA0C7675
:101CE00044F1000448EA03434EEA0B484FF0000E6B
:101CF000B2EB080C71EB030724BF624639464EEB8A
:101D00000E0E4FF0000B0018524149414BEB0B0BEC
:101D1000B2EB080C71EB03077BF1000B24BF6246AA
:101D200039464EEB0E0E4FF0000B00185241494160
:101D30004BEB0B0BB2EB080C71EB03077BF1000BC9
:101D400024BF624639464EEB0E0E51EA020718BF19
:101D500046F0010616EB0E7655F1000254F1000133
:101D600003D5BDE88901BDE80088BDE88901BDE86B
:101D70000048B619524141EB0101A3F1010370473C
:101D800080807F7E7D7C7B7A7978777676757473B8
:101D9000727171706F6E6E6D6C6C6B6A6A69686877
:101DA000676666656464636362616160605F5F5E0D
:101DB0005E5D5D5C5C5B5B5A5A5959585857575683
:101DC00056555555545453535252525151505050E8
:101DD0004F4F4F4E4E4D4D4D4C4C4C4B4B4B4A4A3A
:101DE0004A4949494848484747474746464645457E
:101DF00045444444444343434342424242414141B7
:101E0000002B9C4630D477002BD01CB54FEA370707
:101E100003B44FF010004FF01001BAF1000F06D0DC
:101E2000BCF1000FDCBF40F0080040F008014FF0AB
:101E300000000FBCBDE810400BF1010BBBF1010F1E
:101E400008BF5FEA170722BF12F1010211F1010179
:101E50004FF0004143F1000300F0004043EA00006E
:101E60007047F9D35708D0E746EA064613F1400F0A
:101E70004FEA16461FDD13F1200FDFBF16430A4657
:101E8000002120335B42BED0C3F1200746EA06465C
:101E900002FA07F74FEA164646EA0706C3F120079B
:101EA00022FA03F201FA07F721FA03F14FF00003D7
:101EB00042EA0702A7E746EA020646EA06464FEA72
:101EC000164646EA0106BCBF46EA0646360C4FF007
:101ED00000034FF000024FF0000194E72DE9804C21
:101EE0009A46934670B491E8380007C831EA400C2E
:101EF00048BF34EA430C03D5FFF7E6FDFFF780FF48
:101F0000F0BCBDE8008C2DE9804C9A46934670B435
:101F100091E8380007C810F0804F08BF13F0804FD9
:101F200003D100F005F8FFF76BFFF0BCBDE8008CB3
:101F300020F07F4780EA030023F07F4C07EB0C037F
:101F4000A3F57C5300F00040A3F1FE0392F0000FD4
:101F500000F0B38095F0000F00F077802DE9014983
:101F60004FEA11404FEA144621EA004800FB06FC04
:101F700024EA064708FB06F607FB08F800FB07F70C
:101F800018EB06484CEB164C4FEA124B18EB07487F
:101F90004FEA15464CEB174022EA0B4E0BFB06FCB2
:101FA00025EA06470EFB06F607FB0EFE0BFB07F7BE
:101FB0001EEB064E4CEB164C4FF000061EEB074E88
:101FC0004CEB174B18EB0B0840F1000018EB0E0B15
:101FD00058EB000840F100008F1A4FF000013CBFA1
:101FE000C943661B14BFB5EB040C00213CBFC943B9
:101FF000F61B4FEA17444EEA8E0E27EA04454FEAD5
:102000001C4704FB07622CEA074C05FB07F70CFB97
:1020100005F604FB0CFC16EB074642EB174216EBE9
:102020000C4642EB1C421BEB060658EB02024141F8
:1020300046EA9E0601D5BDE80189B619524141EB39
:102040000101A3F10103BDE801894FEA14454FEAFC
:10205000114724EA054621EA074C05FB07F406FB75
:1020600007F70CFB06F105FB0CFC11EB074144EBF9
:1020700017444FEA124711EB0C4144EB1C4422EA8F
:10208000074C05FB07F206FB07F70CFB06F605FB02
:102090000CFC16EB074642EB174216EB0C4642EBE4
:1020A0001C456A1854F1000148BF7047B6195241E7
:1020B00041EB0101A3F10103704795F0000F37D008
:1020C0004FEA11424FEA144721EA024624EA074C3C
:1020D00002FB07F106FB07F70CFB06F402FB0CFC06
:1020E00014EB074441EB17414FEA154714EB0C443E
:1020F00041EB1C4125EA074C02FB07F506FB07F7FD
:102100000CFB06F602FB0CFC16EB074645EB1745ED
:1021100016EB0C4645EB1C42121951F1000148BF69
:102120007047B619524141EB0101A3F10103704719
:102130004FEA14454FEA114724EA054621EA074CC5
:1021400005FB07F106FB07F70CFB06F24FF0000654
:1021500005FB0CFC12EB074241EB174112EB0C4262
:1021600051EB1C4148BF7047921841EB0101A3F1AC
:102170000103704700BFFEE70346042B15D007DCC0
:102180007BB1012B0ED0022B0DD0032B12D10BE013
:10219000202B0BD0212B0AD0222B09D0232B09D1A5
:1021A00007E008E007E006E005E004E003E002E005
:1021B00001E000E000BF00BF002070470020704732
:1021C00010B5044B044A4FF47A71044809F04CFBF3
:1021D000002010BD68110020840F0020A401002001
:1021E00070B504460D46214602482A6809F0FFFAF8
:1021F000002070BDA401002010B503460C4600214C
:10220000084610BD10B5024800F016F910BD0000D8
:10221000340E002010B5024800F00EF910BD000089
:10222000940E00200146087810381823B0FBF3F212
:102230000848805CC865032A05D908686FF309005F
:10224000001D886503E008686FF309008865886DE4
:102250007047000062C30008014600208A6A8B694B
:10226000CBB932B1012A0DD0022A03D0032A10D1F2
:102270000EE000BFCB6A03F08073B3F1807F00D122
:10228000012007E0CB6AB3F1C07F00D1012001E05B
:1022900000E000BF34E08B69B3F5005F1AD132B1C2
:1022A000012A07D0022A03D0032A11D10AE000BF75
:1022B00001200EE0CB6A03F08073B3F1807F00D180
:1022C000012006E0CB6AB3F1C07F00D1012000E01D
:1022D00000BF15E032B1012A05D0022A04D0032A3A
:1022E0000CD103E000BF00BF012008E0CB6A03F07F
:1022F0008073B3F1807F00D1012000E000BF00BFF8
:102300007047704710B54FF4007000F04FFA10BDE1
:1023100010B502A0FEF75EF810BD000048414C2049
:102320006572726F720A000070B50A480468001D79
:102330000568001D0668344454B108220649204649
:1023400005F04EF8042204491031284605F048F8FB
:1023500070BD0000107AFF1F4600002070B50446D3
:10236000A56D00F02FFB064694F83500022808D032
:102370008020606500BF002084F8340000BF012089
:1023800070BD2068006820F0160021680860206891
:10239000406920F0800021684861206C08B9A06C79
:1023A00028B12068006820F00800216808602068D3
:1023B000006820F001002168086010E000F002FBD6
:1023C000801B05280BD920206065032084F8350088
:1023D00000BF002084F8340000BF0320D0E720684D
:1023E000006800F001000028E8D194F85C103F205C
:1023F0008840A860012084F8350000BF002084F8E0
:10240000340000BF00BFBBE7014691F83500022849
:1024100003D08020486501207047052081F83500F1
:102420000868006820F001000A6810600020F3E7E7
:10243000014691F835007047F8B504460020009039
:102440008C4800684FF41651B0FBF1F7A56D2E686B
:1024500094F85C1008208840304098B120680068EB
:1024600000F0040070B12068006820F004002168CA
:10247000086094F85C1008208840A860606D40F007
:102480000100606594F85C1001208840304068B11C
:102490002068406900F0800040B194F85C10012091
:1024A0008840A860606D40F00200606594F85C10A0
:1024B00004208840304068B12068006800F00200C5
:1024C00040B194F85C1004208840A860606D40F032
:1024D0000400606594F85C1010208840304078B3A8
:1024E0002068006800F0080050B394F85C101020D9
:1024F0008840A8602068006800F4802080B12068CF
:10250000006800F4002028B9206CC8B12046216C76
:10251000884715E0A06C98B12046A16C88470FE071
:102520002068006800F4807028B92068006820F0F6
:10253000080021680860206C10B12046216C884793
:1025400094F85C10202088403040002865D0206836
:10255000006800F0100000285FD094F85C10202084
:102560008840A86094F83500052828D120680068C4
:1025700020F01600216808602068406920F0800083
:1025800021684861206C08B9A06C28B120680068F7
:1025900020F008002168086094F85C103F20884013
:1025A000A860012084F8350000BF002084F83400C2
:1025B00000BF206D10B12046216D8847F8BD20680E
:1025C000006800F4802080B12068006800F40020DA
:1025D00028B9606C10B12046616C88471DE0E06B43
:1025E000D8B12046E16B884717E02068006800F406
:1025F000807068B92068006820F0100021680860C9
:10260000012084F8350000BF002084F8340000BFAA
:10261000E06B10B12046E16B8847606D38B3606DA8
:1026200000F00100F0B1052084F835002068006852
:1026300020F001002168086000BF0098401C009055
:10264000B84200D905E02068006800F001000028C9
:10265000F3D100BF012084F8350000BF002084F8CA
:10266000340000BFE06C10B12046E16C884700BF29
:10267000A4E70000800000202DE9F0410446002579
:1026800000F0A0F9074614B90120BDE8F081606AA6
:1026900000B100BF022084F8350000BF002084F89C
:1026A000340000BF2068006820F001002168086045
:1026B0000AE000F087F9C01B052805D920206065D5
:1026C000032084F83500E0E72068006800F001008E
:1026D0000028EED12068056821480540D4E90101B1
:1026E0000843E16808432169084361690843A16917
:1026F0000843E1690843216A08430543606A0428E6
:1027000003D1D4E90B010843054320680560206824
:10271000456925F00705606A0543606A04280DD104
:10272000A06A0543E06A48B12046FFF795FD28B14D
:1027300040206065012084F83500A6E720684561E7
:102740002046FFF76FFD064694F85C103F20884056
:10275000B06000206065012084F83500002094E717
:102760003F8010F070B5044600F02CF9064625466F
:10277000681C10B104480078054400BF00F022F93D
:10278000801BA842FAD370BD7C00002038B50446F7
:1027900042F210707F234FF416720221009002481B
:1027A00008F0F8FB38BD0000C809002010B5044649
:1027B00004480068204020B1024804602046FFF72A
:1027C000E5FF10BD143C0140F8B502460B4600255C
:1027D000002400200021D5E0012606FA01F51E683C
:1027E00006EA0504AC4274D11E7906F00306012EF8
:1027F00004D01E7906F00306022E13D190684F0014
:102800000326BE40B0434F00DE68BE4030439060B8
:10281000506801268E40B0431E79C6F300168E40E4
:10282000304350601E7906F00306032E09D0D068AD
:102830004F000326BE40B0434F009E68BE40304369
:10284000D0601E7906F00306022E13D1CF0802F1E4
:10285000200656F827004E07F70E0F26BE40B0435D
:102860004F07FF0E1E69BE403043CF0802F120061D
:1028700046F8270010684F000326BE40B0431E797B
:1028800006F003064F00BE40304310605E6806F459
:102890004036002E75D000BF002600963B4E3668AD
:1028A00046F48046394F3E603E46366806F4804620
:1028B000009600BF00BF364E8F0856F827008E07DF
:1028C000370F0F26BE40B043324EB24202D100262F
:1028D00024E056E0304EB24201D101261EE02F4ED8
:1028E000B24201D1022619E02D4EB24201D1032697
:1028F00014E02C4EB24201D104260FE02A4EB2421F
:1029000001D105260AE0294EB24201D1062605E092
:10291000274EB24201D1072600E008268F073F0F5D
:10292000BE4030431A4E8F0846F82700214E3068CB
:10293000A0435E6806F4803606B120431D4E306029
:10294000361D3068A0435E6806F4003606B12043A9
:10295000184E361D3060361D3068A0435E6806F4A0
:10296000801606B12043134E08363060361D30689D
:10297000A0435E6806F4001606B120430D4E0C36E7
:102980003060491C1029FFF427AFF8BD44380240DD
:1029900008380140000002400004024000080240E4
:1029A000000C0240001002400014024000180240D7
:1029B000001C0240003C01400AB1816101E00B04AF
:1029C0008361704701480068704700007400002070
:1029D000704770472DE9F84F044620684769206822
:1029E000D0F80480002594F83E90C7F3002040B151
:1029F000C8F3002028B145F001056FF4807021680C
:102A00004861C7F3402040B1C8F3002028B145F029
:102A100002056FF4007021684861C7F3802070B32D
:102A2000C8F3002058B3CA46B4F82AB094F83D6001
:102A3000206B0090BAF1200F0FD1BBF1000F0CD129
:102A4000212E06D0292E04D0282E06D10098212828
:102A500003D1204604F02CFA11E06FF48060216865
:102A6000486145F00405B9F1100F02D0B9F1400FEB
:102A700005D12068006840F4007021680860C7F341
:102A8000C02040B1C8F3002028B145F008056FF41C
:102A90000060216848612DB1206C284320642046E5
:102AA00003F0C4FBBDE8F88F2DE9F04705464FF071
:102AB000000928684668D5F82CA095F83E7095F86E
:102AC0003D80102F01D0402F75D12868D0F8189084
:102AD0002868446904F0010060B9BAF52A0F02D0F1
:102AE000BAF12A4F01D1012000E00020012801D1D4
:102AF000BDE8F08704F0010048B1C6F3402030B1D2
:102B0000284603F009FB284604F08BF8B7E0C4F32D
:102B1000C00030B1C6F3402018B1284603F038FF9A
:102B2000ADE0C4F3400030B1C6F3402018B12846F0
:102B300003F043FFA3E0C9F3800040B32868406876
:102B400000F40060B0F5006FE0D0C4F3C01048B1ED
:102B5000C6F3802030B1C4F3800018B9284603F0D2
:102B6000ABFE8CE0C4F380000028CFD0C6F3402039
:102B70000028CBD0B8F1210F03D1284603F04CFE3A
:102B80007DE0402F7BD1284604F09AF877E0286852
:102B9000406800F40060B0F5006F70D0C4F380109E
:102BA00050B1C6F3802038B1C4F3800020B9284664
:102BB00003F0C4FC63E00BE0C4F3800000285ED0A7
:102BC000C6F3402000285AD0284603F024FC56E0E3
:102BD000286C10B12868446904E02868D0F818907F
:102BE00028684469C4F3400060B1C6F3402048B18E
:102BF000286C10B12868D0F818904946284604F08F
:102C00001EF93CE0C4F3001030B1C6F3402018B107
:102C1000284604F09DF932E0B8F1210F02D0B8F156
:102C2000290F16D1C4F3C01048B1C6F3802030B1CB
:102C3000C4F3800018B9284604F0DEF81FE0C4F39E
:102C40008000E0B1C6F34020C8B1284604F0C7F8C0
:102C500015E0C4F3801048B1C6F3802030B1C4F34E
:102C6000800018B9284604F097F808E0C4F3800003
:102C700028B1C6F3402010B1284604F080F800BF08
:102C800036E7704770B504460CB9012070BD94F862
:102C90003D0028B9002084F83C00204600F014FBD9
:102CA000242084F83D002068006820F0010021689D
:102CB00008602068006840F40040216808602068CF
:102CC000006820F400402168086001F06FFC0546B0
:102CD0005C496068884206D85B48854201D2012081
:102CE00007E0002005E05948854201D2012000E0BC
:102CF0000020012800D1C9E75548B5FBF0F620684F
:102D0000406820F03F003043216848604D496068CA
:102D1000884201D8701C07E04FF4967070434FF45E
:102D20007A71B0FBF1F0401C2168096A21F03F0183
:102D300008432168086243496068884214D8681EC5
:102D400061684900B0FBF1F0401CC0F30B0004289F
:102D500001D204203DE0681E61684900B0FBF1F03B
:102D6000401CC0F30B0034E0A06838B9681E6168ED
:102D700001EB4101B0FBF1F0401C0AE0681E616804
:102D800001EBC10202EB0111B0FBF1F0401C40F479
:102D90008040C0F30B0008B901201AE0A06848B9D0
:102DA000681E616801EB4101B0FBF1F0401CC0F30B
:102DB0000B000CE0681E616801EBC10202EB01111F
:102DC000B0FBF1F0401CC0F30B0040F4804040F435
:102DD00000402168C9694CF6FF729143084321689D
:102DE000C861D4E9070108432168096821F0C001DE
:102DF000084321680860D4E9031008432168896802
:102E000048F2FF329143084321688860D4E9050104
:102E100008432168C96821F0FF0108432168C860A0
:102E20002068006840F001002168086000202064EC
:102E3000202084F83D000020206384F83E0000BF7D
:102E400024E70000A086010080841E0000093D00E8
:102E500040420F0070477047704700002DE9F8436B
:102E60000446894617469846089EFFF7ABFD05467F
:102E700094F83D0020287DD119230122B249204633
:102E8000009504F059F910B10220BDE8F88300BFA5
:102E900094F83C00012801D10220F6E7012084F8D3
:102EA0003C0000BF2068006800F0010028B92068DD
:102EB000006840F00100216808602068006820F484
:102EC000006021680860222084F83D00102084F80A
:102ED0003E00002020646762A4F82A80608D20856F
:102EE0009A48E0622B4632464946204603F098FB5A
:102EF00008B10120C9E7208D88B900BF00200090EB
:102F000020684069009020688069009000BF00BF81
:102F10002068006840F400702168086047E0208D58
:102F2000012817D12068006820F4806021680860BB
:102F300000BF0020009020684069009020688069F0
:102F4000009000BF00BF2068006840F40070216856
:102F500008602CE0208D022818D12068006820F439
:102F60008060216808602068006840F40060216883
:102F7000086000E0E6E000BF0020009020684069A3
:102F8000009020688069009000BF10E02068006811
:102F900040F480602168086000BF00200090206835
:102FA0004069009020688069009000BF00BFBAE0CF
:102FB000208D03287ED8208D012815D12A46314640
:102FC000204604F05EF908B101205EE72068006940
:102FD000616A0870606A401C6062208D401E208516
:102FE000608D401E60859EE0208D02282AD13346E8
:102FF000002257492046009504F09EF808B10120B0
:1030000043E72068006840F4007021680860206889
:103010000069616A0870606A401C6062208D401E11
:103020002085608D401E608520680069616A087097
:10303000606A401C6062208D401E2085608D401EAD
:10304000608570E03346002241492046009504F037
:1030500073F808B1012018E72068006820F4806048
:103060002168086020680069616A0870606A401C15
:103070006062208D401E2085608D401E6085334635
:10308000002233492046009504F056F808B101208B
:10309000FBE62068006840F4007021680860206842
:1030A0000069616A0870606A401C6062208D401E81
:1030B000208500E010E0608D401E6085206800697A
:1030C000616A0870606A401C6062208D401E208525
:1030D000608D401E608526E02A463146204604F079
:1030E000D0F808B10120D0E620680069616A087054
:1030F000606A401C6062208D401E2085608D401EED
:10310000608520684069C0F3800060B12068006974
:10311000616A0870606A401C6062208D401E2085D4
:10312000608D401E6085208D00287FF441AF2020F7
:1031300084F83D00002084F83E0000BF84F83C0085
:1031400000BFA2E60220A0E6020010000000FFFF80
:10315000040001002DE9F8430446894616461F463F
:10316000DDF82080FFF72EFC054694F83D0020286E
:103170007ED11923012251492046009503F0DCFF3E
:1031800010B10220BDE8F88300BF94F83C0001288C
:1031900001D10220F6E7012084F83C0000BF20683E
:1031A000006800F0010028B92068006840F00100C4
:1031B000216808602068006820F4006021680860C9
:1031C000212084F83D00102084F83E000020206477
:1031D00066626785608D20853948E0622B464246ED
:1031E0004946204603F0B8FA08B10120CAE700BFFB
:1031F000002000902068406900902068806900905D
:1032000000BF00BF44E02A464146204604F0A2F831
:1032100050B1206C042805D12068006840F400708B
:10322000216808600120ADE7606A007821680861C4
:10323000606A401C6062608D401E6085208D401E6B
:10324000208520684069C0F3800070B1208D60B196
:10325000606A007821680861606A401C6062608D65
:10326000401E6085208D401E20852A46414600E094
:1032700022E0204603F032FF50B1206C042805D133
:103280002068006840F4007021680860012079E738
:10329000208D0028B7D12068006840F400702168B4
:1032A0000860202084F83D00002084F83E0000BF24
:1032B00084F83C0000BF65E7022063E702001000CD
:1032C0000000FFFF7047704710B586B00446142118
:1032D00001A8FDF7A4FA55492068884241D100BFF2
:1032E000002000905248006840F0020050490860F9
:1032F0000846006800F00200009000BF00BF4FF4D5
:10330000406001901220029001200390032004905D
:103310000420059001A94748FFF756FA00BF002096
:10332000009043481030006840F48000404910315C
:1033300008600846006800F48000009000BF00BFED
:1033400000221146212000F039F9212000F026F951
:1033500000221146222000F031F9222000F01EF94F
:1033600061E03549206888425DD100BF00200090AF
:103370002F48006840F004002D49086008460068A6
:1033800000F00400009000BF00BF00BF00200090CC
:103390000846006840F0010008600846006800F038
:1033A0000100009000BF00BF48150190122002905C
:1033B00001200390032004900420059001A91F48D8
:1033C000FFF702FA4FF48070019012200290012062
:1033D0000390032004900420059001A91848FFF7EA
:1033E000F3F900BF0020009011481030006840F44D
:1033F00000000F49103108600846006800F4000022
:10340000009000BF00BF00221146482000F0D6F80F
:10341000482000F0C3F800221146492000F0CEF801
:10342000492000F0BBF806B010BD00000058004075
:103430003038024000040240005C004000080240B6
:10344000000002407047704770B504460CB9012077
:1034500070BD4CF6CC402168086045F2555021689B
:103460000860D4E9001048602168A0688860FFF710
:10347000A9FA05460BE0FFF7A5FA401B312806D94B
:103480002068C06800F0030008B10320E0E720686E
:10349000C06800F003000028EDD14AF6AA20216898
:1034A00008600020D4E701464AF6AA200A681060A6
:1034B000002070470348006803490978084401491F
:1034C00008607047740000207C00002010B50D4893
:1034D000006840F400700B4908600846006840F43A
:1034E000806008600846006840F48070086003202F
:1034F00000F0A2F8002000F007F800F02BF8002000
:1035000010BD0000003C024070B504460E48007833
:103510004FF47A71B1FBF0F00C490968B1FBF0F59A
:10352000284601F099FE08B1012070BD102C07D289
:1035300000222146501E00F041F80548046001E0D9
:103540000120F2E70020F0E77C000020800000204E
:103550007800002008B500BF002000900E480068E9
:1035600040F480400C4908600846006800F4804040
:10357000009000BF00BF00BF00200090081F00683F
:1035800040F08050091F08600846006800F0805035
:10359000009000BF00BF08BD443802400146084605
:1035A000002809DB00F01F0301229A4043099B0019
:1035B00003F1E023C3F8002100BF70472DE9F05F5D
:1035C00080460D461646002707F0E4F907463946BF
:1035D0002A46334601F00700C0F1070ABAF1040F8A
:1035E00002D94FF0040A01E0C0F1070AD14600F108
:1035F000040ABAF1070F02D24FF0000A01E0A0F16D
:10360000030AD4464FF0010A0AFA09FAAAF1010A9C
:103610000AEA020A0AFA0CFA4FF0010B0BFA0CFB49
:10362000ABF1010B0BEA030B4AEA0B0421464046BF
:1036300007F0B8F9BDE8F09F00BF00F00702064BA5
:1036400019684FF6FF031940044B0B4343EA02216C
:10365000014B196000BF70470CED00E00000FA0557
:10366000704702461068416200207047F0B503467B
:1036700015461868446A21B944EA05401E68B062DC
:1036800019E01868806A04EB1044002208E018680A
:1036900000F5827050F8220004EB1044501CC2B2B6
:1036A000481E9042F3D844EA0547186800F5827036
:1036B0004E1E40F826700020F0BD10B50446D4F828
:1036C000040405F033FD10BD70B504460D46C5EB8E
:1036D000C50304F13C0101EB8301CA682946D4F813
:1036E000040405F06BFC70BD70B504460D46C5EBD7
:1036F000C50304F5FE7101EB8301CA682946D4F8BD
:10370000040405F0CCFC70BD10B50446D4F80404E4
:1037100005F00FFD10BD70B504460E4606F08000A2
:1037200080280AD106F00F00C0EBC00104F13C0074
:1037300000EB81050120687009E006F00F00C0EB86
:10374000C00104F5FE7000EB81050020687006F0F2
:103750000F00287000BF94F8BC03012801D102209B
:1037600070BD012084F8BC0300BF2946206806F024
:1037700031FA00BF002084F8BC0300BF00BFEFE7B0
:1037800070B504460E4606F00F006168884201D904
:10379000012070BD06F0800080280AD106F00F00DD
:1037A000C0EBC00104F13C0000EB81050120687012
:1037B00009E006F00F00C0EBC00104F5FE7000EB5D
:1037C0008105002068700020A87006F00F002870A6
:1037D00000BF94F8BC03012801D10220D9E70120E1
:1037E00084F8BC0300BF2946206806F0D9FC00BF5E
:1037F000002084F8BC0300BF00BFCAE7024601F006
:103800000F00C0EBC00302F5FE7000EB830080697F
:1038100070472DE9F04705460E4690461F464FF08B
:10382000000906F0800080280AD106F00F00C0EBE6
:10383000C00105F13C0000EB81040120607009E04B
:1038400006F00F00C0EBC00105F5FE7000EB81042F
:103850000020607006F00F002070C4F80880E77048
:10386000607808B12078E080022F01D1002020711B
:1038700000BF95F8BC03012802D10220BDE8F08703
:10388000012085F8BC0300BF2146286806F0BAF87D
:1038900000BF002085F8BC0300BF4846EEE72DE9D5
:1038A000F04104460E461746984606F00F00C0EB5E
:1038B000C00104F5FE7000EB8105EF60C5F81480CF
:1038C0000020A861687006F00F00287020690128A8
:1038D00000D12F6106F00F0028B9227C294620680C
:1038E00006F03AFB04E0227C2946206806F0ECFC56
:1038F0000020BDE8F08170B504460D4605F00F00CC
:103900006168884201D9012070BD05F080008028DF
:103910000AD105F00F00C0EBC00104F13C0000EB40
:1039200081060120707007E0C5EBC50104F5FE704B
:1039300000EB8106002070700120B07005F00F00D0
:10394000307000BF94F8BC03012801D10220DBE7EE
:10395000012084F8BC0300BF3146206806F067FCF4
:1039600005F00F0028B9217C04F57172206806F07B
:10397000DFFB00BF002084F8BC0300BF00BFC3E72B
:103980002DE9F04104460E461746984606F00F0012
:10399000C0EBC00104F13C0000EB8105EF60C5F80D
:1039A00014800020A8610120687006F00F002870C4
:1039B0002069012800D12F6106F00F0028B9227C70
:1039C0002946206806F0C8FA04E0227C29462068CF
:1039D00006F07AFC0020BDE8F0812DE9FE4F044698
:1039E00020680290029D206806F05DFE00287DD1CF
:1039F000206806F097FE08B9BDE8FE8F206806F043
:103A000091FE00F00200022805D12068406900F014
:103A1000020021684861206806F084FE00F0100072
:103A2000102846D12068806920F010002168886144
:103A30000298D0F8209009F00F00C0EBC00104F507
:103A4000FE7000EB810AC9F3434002281AD147F601
:103A5000F07009EA000030B3C9F30A12DAF80C106A
:103A6000029806F064FEC9F30A11DAF80C00084463
:103A7000CAF80C00C9F30A11DAF818000844CAF8A9
:103A8000180010E0C9F3434006280CD1082204F5C1
:103A90007171029806F04BFEC9F30A11DAF81800AA
:103AA0000844CAF818002068806940F010002168B6
:103AB0008861206806F036FE00F40020B0F5002F83
:103AC00052D10026206806F0FDFD834649E00BF048
:103AD0000100E8B3F1B2206806F017FE804608F056
:103AE000010058B1012105F5306000E021E200EB52
:103AF000461081603146204604F05CF808F008006A
:103B0000082809D1082105F5306000EB46108160D6
:103B10003146204604F01CF808F01000102805D1AA
:103B2000102105F5306000EB4610816008F02000A0
:103B3000202805D1202105F5306000EB461081607A
:103B400008F40050B0F5005F08D14FF4005100E0D8
:103B500004E005F5306000EB46108160761C4FEA0A
:103B60005B0BBBF1000FB2D1206806F0DBFD00F467
:103B70008020B0F5802F7ED1206806F099FD834625
:103B8000002683E00BF0010000287CD0F1B2206811
:103B900006F0A2FD804608F00100F0B306F00F0128
:103BA00001208840019040F634004159019821EAF3
:103BB000000040F634014851012105F5106000EB8A
:103BC000461081602069012824D1C6EBC60104F1AA
:103BD0003C0000EB8100C6EBC602C16804F13C006A
:103BE00000EB820080680144C6EBC60204F13C0091
:103BF00000EB8200C1606EB9C6EBC60104F13C0067
:103C000000EB8100406928B904F571720121206838
:103C100006F08EFAF1B2204600E001E0FFF754FD15
:103C200008F00800082805D1082105F5106000EB10
:103C30004610816008F01000102805D1102105F50C
:103C4000106000EB4610816008F04000402805D16C
:103C5000402105F5106000EB4610816008F002007D
:103C6000022805D1022105F5106000EB46108160A5
:103C700008F0800001E00DE005E0802803D1314626
:103C8000204604F055F8761C4FEA5B0BBBF1000FA1
:103C90007FF478AF206806F045FD00F00040B0F1F9
:103CA000004F1CD140F60400405920F0010140F6BD
:103CB0000400415194F8F403012807D1002084F84E
:103CC000F40300212046FFF7CBFC02E0204600F081
:103CD00063FA2068406900F000402168486120686C
:103CE00006F020FD00F40060B0F5006F0ED140F644
:103CF0000800405900F0010010B1204600F0A4FA7D
:103D00002068406900F4006021684861206806F07E
:103D100009FD00F48050B0F5805F7DD140F60400CD
:103D2000405920F0010140F6040041511021206863
:103D300006F08CFC00273EE04FF67F3105F5106061
:103D400000EB4710816005F5106000EB471000683C
:103D500020F4001105F5106000EB4710016005F537
:103D6000106000EB4710006840F0006105F510603E
:103D700000EB471001604FF67F3105F5306000EB36
:103D80004710816005F5306000EB4710006820F4B3
:103D9000001105F5306000EB4710016005F530605B
:103DA00000EB4710006840F0006105F5306000EB63
:103DB000471001607F1C6068B842BDD840F61C0007
:103DC000405940F0011140F61C004151206B70B188
:103DD000D5F8840840F00B01C5F8841840F644007B
:103DE000405940F00B0140F6440041510FE040F6CD
:103DF0001400405942F22B01084340F61401485187
:103E0000081F405940F00B014FF401604151D5F8B3
:103E1000000820F4FE6000E00DE0C5F80008217CF9
:103E200004F57172206806F083F92068406900F497
:103E3000805021684861206806F074FC00F400504E
:103E4000B0F5005F17D1206805F044FE206806F049
:103E500017FCE06000F0A4FB0090227B2068009932
:103E600006F0E8FC204600F07FF92068406900F485
:103E7000005021684861206806F054FC00F00800FA
:103E8000082808D1204600F08EF92068406900F02B
:103E9000080021684861206806F044FC00F48010A6
:103EA000B0F5801F0AD100263146204600F043F8C5
:103EB0002068406900F4801021684861206806F09D
:103EC00031FC00F40010B0F5001F0AD10026314685
:103ED000204600F039F82068406900F4001021689D
:103EE0004861206806F01EFC00F08040B0F1804F71
:103EF00008D12046FFF7E1FB2068406900F08040D0
:103F000021684861206806F00DFC00F004000428D8
:103F10000FD12068D0F8049009F00400042802D1E1
:103F20002046FFF7F1FB2068406840EA090021685D
:103F3000486000BF60E570B504460D462946D4F8D8
:103F4000040405F05FF970BD70B504460D462946BE
:103F5000D4F8040405F06EF970BD70B58AB004465B
:103F600014B901200AB070BD266894F8BD0328B9C1
:103F7000002084F8BC03204600F0A2F8032084F857
:103F8000BD03F06B00F4807008B900212161206846
:103F900005F0DAFF282204F110016846FCF7EBFB7C
:103FA00094E80F0005F0AAFD20B1022084F8BD03BB
:103FB0000120D7E70021206806F0E9FB002531E069
:103FC0000121C5EBC50204F13C0000EB8200417009
:103FD000C5EBC50104F13C0000F82150C5EBC5015B
:103FE00000EB8100C5800021C5EBC50204F13C0057
:103FF00000EB8200C170C5EBC50204F13C0000EB90
:1040000082008160C5EBC50204F13C0000EB820038
:10401000C160C5EBC50204F13C0000EB82004161C8
:10402000681CC5B26068A842CAD800252AE00021F1
:10403000C5EBC50204F5FE7000EB82004170C5EBD4
:10404000C50104F5FE7000F821500021C5EBC50242
:1040500000EB8200C170C5EBC50204F5FE7000EBF9
:1040600082008160C5EBC50204F5FE7000EB8200A2
:10407000C160C5EBC50204F5FE7000EB8200416132
:10408000681CC5B26068A842D1D8282204F110018A
:104090006846FCF770FB94E80F0005F065FE20B160
:1040A000022084F8BD0301205CE7002084F838007A
:1040B000012084F8BD03206805F044FE002051E78C
:1040C00010B586B00446142101A8FCF7A8FB2068AF
:1040D000B0F1A04F42D100BF0020009020480068FE
:1040E00040F001001E4908600846006800F0010029
:1040F000009000BF00BF4FF4C0500190022002901A
:1041000000200390032004900A20059001A915487F
:10411000FEF75AFB00BF1248001D006840F0800007
:104120000F49091D086000BF002000900C481430A2
:10413000006840F480400A4914310860084600686D
:1041400000F48040009000BF00BF00BF0022114675
:104150004320FFF733FA4320FFF720FA06B010BDE3
:10416000303802400000024070B504460125E06886
:1041700008B9002506E0E068022801D1012501E028
:10418000FEF7C6F82946D4F8040405F0F2F8D4F88E
:10419000040405F097F870BD10B50446D4F8040483
:1041A00005F0C6F810BD10B50446D4F8040405F0B7
:1041B000CAF810BD70B504460D4600BF94F8BC03A4
:1041C000012801D1022070BD012084F8BC0300BF8A
:1041D00084F838502946206806F00DFB00BF002007
:1041E00084F8BC0300BF00BFEDE710B5044604F53A
:1041F0007171D4F8040405F0D3F810BD70B504460D
:10420000256800BF94F8BC03012801D1022070BDCD
:10421000012084F8BC0300BFA06A012806D1A06970
:10422000012803D0A86B40F48030A863206806F012
:10423000EDF9206805F074FD00BF002084F8BC0390
:1042400000BF00BFE3E7000010B50446D4F8040443
:1042500005F003F92068D0F8000E40F00100216855
:10426000C1F8000E206A28B10348006840F006003B
:104270000149086010BD000010ED00E0F8B50446EB
:1042800000250026207800F0010020B9207800F0F9
:10429000040004282FD100205B498866FEF792FBBA
:1042A000054606E0FEF78EFB401B022801D90320DD
:1042B000F8BD56480068C0F3C0600028F2D16068BD
:1042C0008101207A41EA0070504984310860012060
:1042D0004D498866FEF776FB054606E0FEF772FB61
:1042E000401B022801D90320E2E748480068C0F3D8
:1042F000C0600028F2D0207800F0020002287DD1B2
:1043000000BF0020009041484030006840F08050DD
:104310003E49403108600846006800F08050009037
:1043200000BF00BF3A48006840F480703849086018
:10433000FEF748FB054606E0FEF744FB401B02285B
:1043400001D90320B4E73248006800F480700028E7
:10435000F2D02E487030006800F440764EB3A08949
:1043600000F44070B04224D028487030006820F437
:1043700040760120274908600020086023487030FB
:104380000660006800F0010098B1FEF71BFB0546CF
:1043900008E0FEF717FB401B41F28831884201D943
:1043A000032085E7194870300068C0F340000028FA
:1043B000EFD000BFA08900F44070B0F5407F0CD171
:1043C00012480830006820F4F810134AE1681140E0
:1043D00008430E490831086007E00C4808300068BF
:1043E00020F4F81009490831086008487030006866
:1043F000A189C1F30B010843044900E002E07031D8
:10440000086000BF002053E7000047420038024028
:1044100000700040400E4742FFFCFF0F70B504469D
:104420000D460CB9012070BD5848006800F0070027
:10443000A84209D255490D700846006800F00700EF
:10444000A84201D00120EEE7207800F00200022807
:104450001DD1207800F00400042805D14C480068E4
:1044600040F4E0504A490860207800F0080008282D
:1044700005D14748006840F4604045490860444819
:10448000006820F0F000A1680843414908602078E6
:1044900000F00100A8B36068012807D13C48083843
:1044A0000068C0F34040B8B90120BCE7606802284A
:1044B00002D06068032807D1354808380068C0F387
:1044C000406048B90120AEE7314808380068C0F3C1
:1044D000400008B90120A6E72D48006820F003003D
:1044E000616808432A490860FEF76CFA064609E04D
:1044F000FEF768FA801B41F28831884202D9032016
:1045000091E707E02248006800F00C006168B0EB1A
:10451000810FEDD11D48006800F00700A84209D9BD
:104520001A490D700846006800F00700A84201D043
:10453000012078E7207800F00400042807D114480F
:10454000006820F4E050E1680843114908602078D1
:1045500000F00800082808D10D48006820F46040E9
:10456000216940EAC1000A49086000F03FF80849A3
:104570000968C1F30311074A515CC8400649086045
:1045800006480068FEF7C0FF00204CE7003C0240F0
:10459000083802406AC3000880000020780000202C
:1045A00001480068704700008000002000B5FFF758
:1045B000F7FF04490968C1F38221034A515CC840EE
:1045C00000BD0000083802407AC3000800B5FFF7BC
:1045D000E7FF04490968C1F34231034A515CC8400E
:1045E00000BD0000083802407AC300082DE9F047FA
:1045F000002400250026A1462548006800F00C0094
:1046000020B1042805D008283AD105E0DFF88490CD
:1046100039E0DFF8849036E01D48001F006800F0A4
:104620003F041B48001F006800F4800078B11A485E
:104630001749091F0968C1F38811A0FB01700146E1
:10464000224600233846FBF74DFE05460EE0114892
:104650000F49091F0968C1F38811A0FB01700146C9
:10466000224600233846FBF73DFE05460848001F5A
:104670000068C0F30140401C4600B5FBF6F902E0BB
:10468000DFF8109000BF00BF4846BDE8F08700008B
:10469000083802400024F40080969800F8B50446DB
:1046A0000CB90120F8BD207800F00100002874D07A
:1046B000F948006800F00C0004280DD0F6480068A6
:1046C00000F00C00082813D1F348001F006800F424
:1046D0008000B0F5800F0BD1EF4808380068C0F3B8
:1046E0004040002859D06068002856D10120D9E701
:1046F00000BF6068B0F5803F08D1E748083800681F
:1047000040F48030E449083908601EE06068B0F584
:10471000A02F0DD1E0480838006840F48020DE4921
:10472000083908600846006840F4803008600CE0F2
:10473000D9480838006820F48030D7490839086023
:104740000846006820F48020086000BF606890B1CF
:10475000FEF738F9054606E0FEF734F9401B6428F9
:1047600001D903209EE7CC4808380068C0F34040D8
:104770000028F1D011E0FEF725F9054606E0FEF726
:1047800021F9401B642801D903208BE7C24808386F
:104790000068C0F340400028F1D1207800F002000A
:1047A00002285FD1BC48006800F00C0058B1BA483C
:1047B000006800F00C0008281CD1B748001F0068F2
:1047C00000F48000B0B9B44808380068C0F3400075
:1047D00020B1E068012801D0012063E7AE48083825
:1047E000006820F0F800216940EAC100AA490839B0
:1047F000086037E0E06800B30120A8490860FEF7D0
:10480000E1F8054606E0FEF7DDF8401B022801D975
:10481000032047E7A04808380068C0F3400000289C
:10482000F1D09D480838006820F0F800216940EA7E
:10483000C10099490839086014E0002097490860D0
:10484000FEF7C0F8054606E0FEF7BCF8401B02285C
:1048500001D9032026E7904808380068C0F34000DB
:104860000028F1D1207800F0080008282CD16069D8
:10487000A8B101208A490860FEF7A4F8054606E0C1
:10488000FEF7A0F8401B022801D903200AE782485E
:104890006C300068C0F340000028F1D014E0002024
:1048A0007F490860FEF78EF8054606E0FEF78AF8B5
:1048B000401B022801D90320F4E677486C300068D9
:1048C000C0F340000028F1D1207800F00400042853
:1048D00070D1002770483830006800F0805090B9DF
:1048E00000BF002000906C483830006840F08050D5
:1048F0006949383108600846006800F0805000902F
:1049000000BF00BF01276748006800F48070B0B99D
:104910006448006840F4807062490860FEF752F80D
:10492000054606E0FEF74EF8401B022801D9032099
:10493000B8E65C48006800F480700028F2D000BF40
:10494000A068012808D154486830006840F0010090
:104950005149683108601DE0A06805280DD14E4816
:104960006830006840F004004B4968310860084630
:10497000006840F0010008600CE0474868300068BB
:1049800020F001004449683108600846006820F0C2
:104990000400086000BFA068A8B1FEF713F8054640
:1049A00009E0FEF70FF8401B41F28831884202D936
:1049B000032077E626E0384868300068C0F34000FE
:1049C0000028EED013E0FDF7FDFF054608E0FDF7F7
:1049D000F9FF401B41F28831884201D9032061E68A
:1049E0002D4868300068C0F340000028EFD1012F47
:1049F00007D129483830006820F0805026493831E6
:104A0000086000BFA069002845D02348006800F076
:104A10000C0008285DD0A069022845D100201F495C
:104A20000866FDF7CFFF054606E0FDF7CBFF401B0C
:104A3000022801D9032035E6174808380068C0F37A
:104A400040600028F1D1D4E907010843616A40EAD7
:104A500081110122A06AC2EB500041EA00412C20E2
:104A6000005D41EA00600C49091F086001200B4904
:104A70000866FDF7A7FF054606E0FDF7A3FF401B0C
:104A8000022801D903200DE6034808380068C0F366
:104A900040600028F1D049E0083802400000474259
:104AA000800E474200700040002021490866FDF753
:104AB00089FF054606E0FDF785FF401B022801D966
:104AC0000320EFE51B480068C0F340600028F2D1E6
:104AD0002CE0A069012800D1E4E51648001D066815
:104AE000A069012820D006F48001E06981421BD131
:104AF00006F03F01206A814216D147F6C07030406F
:104B0000616AB0EB811F0FD106F440310122A06A27
:104B1000C2EB5000B1EB004F06D106F070612C20C3
:104B2000005DB1EB006F01D00120BBE50020B9E5CD
:104B3000000047420038024070B504460B46164656
:104B400000252068806A586020680069C0F30E0064
:104B50009860206800680F4900EA0105C5F3054028
:104B60001870C5F30620587005F07F00987005F4A2
:104B70008000000CD8705EB9187803F035F9187011
:104B8000587803F031F95870987803F02DF998703F
:104B9000002070BD7F7F7F0010B504460CB9012056
:104BA00010BD607F20B900202077204600F060F81B
:104BB0000220607700BFCA20216848625320216824
:104BC000486200BF204603F027F940B100BFFF2034
:104BD0002168486200BF042060770120E0E7206878
:104BE000806822490840216888602169606808431C
:104BF00061690843216889680843216888602168E1
:104C0000E068086120680169208941EA0040216864
:104C100008612068C06820F080002168C8602068B2
:104C2000806800F0200060B9204600F059F940B1DA
:104C300000BFFF202168486200BF04206077012088
:104C4000AEE72068006C20F48020216808642068AA
:104C5000006CA16908432168086400BFFF20216837
:104C6000486200BF01206077002099E7BFFF8FFFF7
:104C70001FB504460020009001900290039009495E
:104C8000206888420CD102200090074803906846B3
:104C9000FFF7F4FA08B1FDF73BFB01200349086078
:104CA0001FBD00000028004000030A003C0E4742E0
:104CB0002DE9F04104460D461646002700BF207F2F
:104CC000012802D10220BDE8F0810120207700BF39
:104CD000022060774EB9687800F01000102804D1E7
:104CE000687800F0EF000A30687086B9E87803F061
:104CF00086F80304687803F082F843EA0023A87872
:104D000003F07DF80343287843EA403709E0E87868
:104D10000004697840EA0120A9780843297840EA2C
:104D2000413700BFCA202168486253202168486289
:104D300000BF204603F070F860B100BFFF2021687B
:104D4000486200BF0420607700BF0020207700BFCA
:104D50000120B8E716483840216848602068C068DC
:104D600020F080002168C8602068806800F0200082
:104D700080B9204600F0B4F860B100BFFF20216880
:104D8000486200BF0420607700BF0020207700BF8A
:104D9000012098E700BFFF202168486200BF012082
:104DA000607700BF0020207700BF00BF8BE70000C6
:104DB0003FFFFF002DE9F04104460D46164600274F
:104DC00000BF207F012802D10220BDE8F081012030
:104DD000207700BF02206077CEB92068806800F09D
:104DE000400000B102E00020E87000BF287803F026
:104DF00006F80304687803F002F843EA0023A87871
:104E000002F0FDFF0343E87843EA004712E0206820
:104E1000806800F0400000B102E00020E87000BFB0
:104E200028780004697840EA0120A9780843E978E5
:104E300040EA014700BFCA20216848625320216828
:104E4000486200BF204602F0E7FF60B100BFFF20CC
:104E50002168486200BF0420607700BF00202077EF
:104E600000BF0120B1E71D48384021680860206874
:104E7000806820F4802021688860D5E90301084318
:104E8000216889680843216888602068C06820F02C
:104E900080002168C8602068806800F0200080B928
:104EA000204600F01DF860B100BFFF202168486275
:104EB00000BF0420607700BF0020207700BF0120E2
:104EC00083E700BFFF202168486200BF01206077B0
:104ED00000BF0020207700BF00BF76E77F7F7F0004
:104EE00070B5044600252068C06820F0A000216845
:104EF000C860FDF767FD054607E0FDF763FD401B51
:104F0000B0F57A7F01D9032070BD2068C06800F039
:104F100020000028F1D00020F6E77047F8B50446DD
:104F20002068466820688568C5F3801048B905F098
:104F3000010030B1C6F3801018B12046216C8847BB
:104F4000F8BDC5F3400030B1C6F3C01018B120461B
:104F5000616C8847F4E7C5F3401030B9C5F38010A1
:104F600018B9C5F3002000287CD0C6F340100028F3
:104F70007DD0C5F38010F0B194F8510003280ED015
:104F8000606D40F00400606500BF00200090206864
:104F9000C068009020688068009000BF0BE000BFF0
:104FA000002000902068C068009020688068009011
:104FB00000BF00BFC4E7C5F3401088B1606D40F08A
:104FC0000100606500BF00200090206880680090AC
:104FD0002068006820F040002168086000BF00BF22
:104FE000C5F3002058B1606D40F00800606500BF57
:104FF0000020009020688068009000BF00BF606DB6
:1050000078B32068406820F0E00021684860012003
:1050100084F8510006F00200022802D006F00100D8
:1050200008B32068406820F0030021684860E06C05
:1050300050B11048E16C0865E06CFDF7E5F918B176
:10504000606D40F040006065A06C50B10948A16CF3
:105050000865A06CFDF7D8F918B1606D40F040000C
:10506000606503E003E02046FFF757FF68E700BFF5
:1050700066E70000697E000810B504460CB90120FF
:1050800010BD606A38B96068B0F5827F00D105E074
:105090000021E16102E00021216161610021A16242
:1050A00094F8510028B9002084F85000204600F000
:1050B00047F8022084F851002068006820F0400082
:1050C00021680860A08800F48270218901F40441FD
:1050D0000843A18901F400610843217C01F0020129
:1050E0000843217D01F001010843218B01F4007187
:1050F0000843217F01F0380108432021095D01F0B8
:1051000080010843218D01F40051084321680860A3
:105110000421A06901EA104094F8241001F0100164
:105120000843216848602068C06920F40060216855
:10513000C86100206065012084F8510000209FE7CD
:1051400010B586B00446142101A8FBF768FB3C4962
:105150002068884272D100BF002000903948006862
:1051600040F48040374908600846006800F48040F9
:10517000009000BF00BF00BF0020009031481038F1
:10518000006840F002002F491039086008460068A6
:1051900000F00200009000BF00BF4FF4604001909B
:1051A0000220029000200390032004900520059027
:1051B00001A92548FDF708FB24482549086000207F
:1051C0004860002122488160C1604FF48061016124
:1051D000002141618161C16101624162FDF74CFAC8
:1051E00008B1FDF795F800BF1948E064846300BF7B
:1051F00016481830174908600020486040211548BB
:1052000081600021C1604FF4806101610021416132
:105210008161C16101624162FDF72EFA08B1FDF7BB
:1052200077F800BF0B48A064846300BF00221146DA
:105230002420FEF7C3F92420FEF7B0F906B010BD14
:1052400000380040403802400004024058600240EC
:10525000340E0020940E002070B504462546681ECA
:10526000B0F1807F01D301200FE0681E4FF0E021F4
:1052700048610F214FF0FF3005F094FB00204FF004
:10528000E021886107200861002070BD70477047E9
:1052900030B502460B4600BF92F83C00012801D110
:1052A000022030BD012082F83C0000BF022082F8BD
:1052B0003D00106844681068816824F07004186824
:1052C000044310684460184D1068A8421BD0106851
:1052D000B0F1804F17D0154D1068A84213D0144D6F
:1052E0001068A8420FD0134D1068A8420BD0124D81
:1052F0001068A84207D0114D1068A84203D0104D85
:105300001068A84205D121F0800158680143106857
:105310008160012082F83D0000BF002082F83C003F
:1053200000BF00BFBDE700000000014000040040D6
:1053300000080040000C0040000401400040014013
:105340000018004010B504460CB9012010BD94F8B7
:105350003D0028B9002084F83C00204600F026F8E3
:10536000022084F83D00211D206802F01DFE01206E
:1053700084F8460000BF84F83E0001213F2001551B
:10538000402001554120015500BF00BF012084F895
:10539000420043200155442001554520015500BFDE
:1053A000012084F83D000020D0E7000038B5044615
:1053B0002068B0F1804F18D100BF0020009036481F
:1053C000006840F00100344908600846006800F0B9
:1053D0000100009000BF00BF002211461C20FEF714
:1053E000EDF81C20FEF7DAF855E02C4920688842D9
:1053F00018D100BF002000902748006840F002004C
:10540000254908600846006800F00200009000BFCF
:1054100000BF002211461D20FEF7D0F81D20FEF728
:10542000BDF838E01E492068884218D100BF00202E
:1054300000901948006840F00800174908600846C5
:10544000006800F00800009000BF00BF0022114675
:105450003220FEF7B3F83220FEF7A0F81BE0114926
:105460002068884217D100BF002000900A480068D9
:1054700040F01000084908600846006800F010007D
:10548000009000BF00BF002211463620FEF796F8BC
:105490003620FEF783F838BD403802400004004053
:1054A000000C004000100040014691F83D0001282A
:1054B00001D001207047022081F83D000868C068D3
:1054C00040F001000B68D8601A4B086898421BD066
:1054D0000868B0F1804F17D0174B0868984213D076
:1054E000164B086898420FD0154B086898420BD0AD
:1054F000144B0868984207D0134B0868984203D0B1
:10550000124B086898420CD10868806800F00702C6
:10551000062A0CD00868006840F001000B6818608B
:1055200005E00868006840F001000B681860002082
:10553000C0E70000000001400004004000080040F7
:10554000000C0040000401400040014000180040F1
:1055500001460868C06820F001000A68D06000BFFA
:105560000868006A41F21112104050B90868006AD8
:105570009210104028B90868006820F001000A68FD
:10558000106000BF012081F83D00002070472DE928
:10559000F04104460D46002700BF94F83C00012866
:1055A00002D10220BDE8F081012084F83C0000BF58
:1055B000022084F83D002068866826F0770626F4ED
:1055C0007F46206886602868502833D00CDC20286D
:1055D00050D004DC00284BD0102851D149E03028AD
:1055E00049D040284CD139E060282DD0702807D010
:1055F000B0F5805F03D0B0F5005F41D10DE041E030
:10560000D5E902136A68206802F03AFD20688668CE
:1056100046F077062068866034E0D5E902136A68B0
:10562000206802F02DFD2068806840F480402168E9
:10563000886027E0EA686968206802F035FD50213B
:10564000206802F028FD1DE0EA686968206802F021
:105650003EFD6021206802F01EFD13E0EA686968E3
:10566000206802F021FD4021206802F014FD09E0CD
:1056700000BF00BF00BF2968206802F00CFD01E0F8
:10568000012700BF00BF012084F83D0000BF0020BB
:1056900084F83C0000BF384684E7704710B50446E4
:1056A00020680069C0F34000D8B12068C068C0F32A
:1056B0004000B0B16FF0020021680861012020773E
:1056C0002068806900F0030018B12046FFF7E5FF6D
:1056D00005E0204600F0ADF8204600F0DFF800209D
:1056E000207720680069C0F38000D8B12068C068C6
:1056F000C0F38000B0B16FF004002168086102209F
:1057000020772068806900F4407018B12046FFF7C8
:10571000C4FF05E0204600F08CF8204600F0BEF8FB
:105720000020207720680069C0F3C000D8B120684D
:10573000C068C0F3C000B0B16FF008002168086114
:10574000042020772068C06900F0030018B12046CB
:10575000FFF7A3FF05E0204600F06BF8204600F0BD
:105760009DF80020207720680069C0F30010D8B1B0
:105770002068C068C0F30010B0B16FF0100021685D
:105780000861082020772068C06900F4407018B1D3
:105790002046FFF782FF05E0204600F04AF8204649
:1057A00000F07CF8002020772068006900F00100FC
:1057B00058B12068C06800F0010030B16FF00100FE
:1057C00021680861204600F06BF820680069C0F38A
:1057D000C01058B12068C068C0F3C01030B16FF07D
:1057E0008000216808612046FFF750FD20680069AD
:1057F000C0F3801058B12068C068C0F3801030B189
:105800006FF0400021680861204600F089F82068A8
:105810000069C0F3401058B12068C068C0F3401060
:1058200030B16FF02000216808612046FFF72FFD9E
:1058300010BD704770B504460D460CB9012070BD0F
:1058400094F83D0028B9002084F83C00204600F080
:1058500024F8022084F83D00211D206802F0A4FBFA
:105860002068006820F0080021680860206800684F
:10587000284321680860012084F8460084F83E002F
:1058800001213F200155012084F8420043200155A9
:10589000012084F83D000020D1E7704770470000E8
:1058A00010B504461448844218D114480078401CAE
:1058B0001249087008460078022804DB00200870AE
:1058C00001200F49087005210E4805F089FB0521CC
:1058D0000D4805F085FB05200C4908700C488442F2
:1058E00002D101200B4908700B48844202D10120EB
:1058F0000A49087010BD0000CC0F002006000020EF
:1059000003000020C8090020E8090020040000204E
:10591000F40E0020050000203C0F002002000020B3
:10592000704770477047000010B5044600BF00BFC5
:1059300021680C3151E8001F21F4907021680C316E
:1059400041E80002002AF3D100BF00BF00BF216878
:10595000143151E8001F21F001002168143141E8A1
:105960000002002AF3D100BF206B01280ED100BF36
:1059700000BF21680C3151E8001F21F010002168A0
:105980000C3141E80002002AF3D100BF20684069D1
:1059900000F04000402826D100BF00BF216814312C
:1059A00051E8001F21F040002168143141E8000255
:1059B000002AF3D100BFA06B50B11148A16B08655C
:1059C000A06BFCF721FDC0B1A06B016D884714E00E
:1059D0000020E085202084F83E000020206320463F
:1059E000FFF7A0FF09E00020E085202084F83E00BA
:1059F000002020632046FFF795FF002010BD000027
:105A00001D81000810B504460348844202D10348B2
:105A100005F09DFD10BD00009C10002048040020F2
:105A20002DE9F84F0446206805682068C66820689C
:105A300047694FF00009CA4605F00F09B9F1000F98
:105A40000AD105F0200038B106F0200020B1204630
:105A500002F0B8FBBDE8F88FB9F1000F7CD007F079
:105A6000010018B906F49070002875D005F0010007
:105A700030B106F4807018B1206C40F00100206451
:105A800005F0040030B107F0010018B1206C40F0BF
:105A90000200206405F0020030B107F0010018B1E7
:105AA000206C40F00400206405F0080048B106F0C6
:105AB000200010B907F0010018B1206C40F0080078
:105AC0002064206C002846D005F0200028B106F0A4
:105AD000200010B1204602F075FB20684069C0F339
